:100000000C9487000C9455040C942E040C948004DA
:100010000C9480040C9480040C94AF000C94AF00FA
:100020000C94AF000C94AF000C94AF000C94AF0094
:100030000C94AF000C94AF000C94AF000C94AF0084
:100040000C94E4030C94AF000C9492020C946C0298
:100050000C94AF000C94AF000C94AF000C94AF0064
:100060000C948A040C94AF0065119211C511F5111E
:10007000F5127913E513971497149714971497149E
:10008000971497149714971497149714971490141F
:100090005F14971497149714971497149714971440
:1000A000701497149714971497147D1497146A1466
:1000B00000000000240027002A00000000002500A6
:1000C00028002B0000000000230026002900040463
:1000D00004040404040402020202020203030303F0
:1000E00003030102040810204080010204081020CC
:1000F00001020408102000000008000201000003B3
:10010000040700000000000000009816901611245B
:100110001FBECFEFD8E0DEBFCDBF24E0AAE3B2E040
:1001200001C01D92A833B207E1F712E0A0E0B1E0F0
:10013000E0EFFAE302C005900D92AA33B107D9F7B8
:1001400010E0C6E8D0E004C02197FE010E94FA1931
:10015000C538D107C9F70E94130F0C946B1D0C947E
:100160000000FC01918D828D981761F0828DDF0176
:10017000A80FB11D5D968C91928D9F5F9F73928F9A
:1001800090E008958FEF9FEF0895FC01918D828D8F
:10019000981731F0828DE80FF11D858D90E008955C
:1001A0008FEF9FEF0895FC01918D228D892F90E0B4
:1001B000805C9F4F821B91098F73992708958EE46D
:1001C00093E00E94D30021E0892B09F420E0822FE4
:1001D0000895FC01848DDF01A80FB11DA35ABF4F04
:1001E0002C91848D90E001968F739927848FA68936
:1001F000B7892C93A089B1898C9180648C93938D5D
:10020000848D981306C00288F389E02D80818F7D4C
:1002100080830895EF92FF920F931F93CF93DF9304
:10022000EC0181E0888F9B8D8C8D981305C0E88947
:10023000F989808185FD24C0F62E0B8D10E00F5FBB
:100240001F4F0F731127E02E8C8DE8120CC00FB6D4
:1002500007FCFACFE889F989808185FFF5CFCE01C7
:100260000E94E900F1CF8B8DFE01E80FF11DE35AEA
:10027000FF4FF0820B8FEA89FB898081806207C083
:10028000EE89FF896083E889F989808180648083B1
:1002900081E090E0DF91CF911F910F91FF90EF905F
:1002A0000895CF93DF93EC01888D8823C9F0EA8904
:1002B000FB89808185FD05C0A889B9898C9186FD5F
:1002C0000FC00FB607FCF5CF808185FFF2CFA8895C
:1002D000B9898C9185FFEDCFCE010E94E900E7CF6F
:1002E000DF91CF91089580E090E0892B29F00E9462
:1002F000DF0081110C94000008953FB7F8948091BD
:10030000DD029091DE02A091DF02B091E00226B5FD
:10031000A89B05C02F3F19F00196A11DB11D3FBF3D
:10032000BA2FA92F982F8827820F911DA11DB11DCB
:10033000BC01CD0142E0660F771F881F991F4A95C7
:10034000D1F70895089585ED8093BC008091BC009D
:1003500084FDFCCF10922B0308954091B102262F0B
:1003600030E0240F311D21323105DCF420912B03C4
:100370002430C9F4FC0180E090E0861758F43091F5
:10038000B1022191DC01A157BD4FA30FB11D2C93E8
:100390000196F3CF8091B102680F6093B10280E0C3
:1003A000089581E0089582E008950895E0912D0375
:1003B00080912C03E81730F4F0E0E25DFC4F80817F
:1003C00090E008958FEF9FEF089590912D03809115
:1003D0002C03981750F4E92FF0E0E25DFC4F2081E8
:1003E00030E09F5F90932D0302C02FEF3FEFC901D4
:1003F000089580912C0390E020912D03821B910998
:100400000895CF92DF92EF92FF920F931F93CF93B5
:10041000DF937C01262F972F8A018091E1028823A8
:1004200091F0C62FD72F6E01C40ED51ECC15DD0559
:1004300071F06991D701ED91FC910190F081E02D6F
:10044000C7010995F3CF642F822F0E94AD01C80127
:10045000DF91CF911F910F91FF90EF90DF90CF90A0
:100460000895CF93DF931F92CDB7DEB769832091B4
:10047000E1022223D1F020910403203240F021E058
:1004800030E0FC013383228380E090E015C080914E
:10049000E202E82FF0E0ED51FD4F998190838F5FEC
:1004A0008093E2028093040305C061E0CE010196CF
:1004B0000E94AD0181E090E00F90DF91CF9108950F
:1004C00080913C0290913D02019690933D02809371
:1004D0003C0208950E944D1D1F920F920FB60F927D
:1004E00011242F933F934F935F936F937F938F9339
:1004F0009F93AF93BF93EF93FF938EE493E00E949B
:10050000E900FF91EF91BF91AF919F918F917F9102
:100510006F915F914F913F912F910F900FBE0F9070
:100520001F9018951F920F920FB60F9211242F93C0
:100530008F939F93EF93FF93E0915E03F0915F039E
:100540008081E0916403F091650382FD12C0908187
:10055000809167038F5F8F7320916803821751F03A
:10056000E0916703F0E0E25BFC4F958F80936703B7
:1005700001C08081FF91EF919F918F912F910F90FA
:100580000FBE0F901F901895833081F028F48130B2
:1005900099F08230A1F008958730A9F08830B9F041
:1005A0008430D1F4809180008F7D03C080918000E1
:1005B0008F7780938000089584B58F7702C084B5CB
:1005C0008F7D84BD08958091B0008F7703C08091A6
:1005D000B0008F7D8093B00008951F93CF93DF9379
:1005E000282F30E0F901EA50FF4F8491F901EE51D4
:1005F000FF4FD491F901E253FF4FC491CC23C9F0CE
:10060000162F81110E94C402EC2FF0E0EE0FFF1FA5
:10061000E654FF4FA591B4918FB7F894111105C01E
:100620009C91ED2FE095E92302C0EC91ED2BEC932A
:100630008FBFDF91CF911F910895CF93DF9390E00B
:10064000FC01EE51FF4F2491FC01E253FF4F8491D6
:10065000882361F190E0880F991FFC01E055FF4F5E
:10066000C591D491FC01E654FF4FA591B49161115D
:1006700009C09FB7F8948881209582238883EC91E4
:100680002E230BC0623061F49FB7F8943881822F1B
:10069000809583238883EC912E2B2C939FBF06C0DB
:1006A0008FB7F894E8812E2B28838FBFDF91CF91ED
:1006B00008958F929F92AF92BF92CF92DF92EF9266
:1006C000FF926B017C010E947D014B015C01C11412
:1006D000D104E104F104F1F00E947D01DC01CB01C1
:1006E00088199909AA09BB09883E9340A105B1055B
:1006F00070F321E0C21AD108E108F10888EE880EF3
:1007000083E0981EA11CB11CC114D104E104F104C2
:1007100019F7DDCFFF90EF90DF90CF90BF90AF90B3
:100720009F908F9008952FB7F8946091D90270919F
:10073000DA028091DB029091DC022FBF0895CF9204
:10074000DF92EF92FF9280918B0290918C02A091A8
:100750008D02B0918E02892B8A2B8B2B79F0C09061
:100760008B02D0908C02E0908D02F0908E020E945D
:100770009303C616D706E806F90608F580913A02F3
:1007800090913B02019690933B0280933A028091B4
:100790003E0290913F02019690933F0280933E0269
:1007A0000E949303DC01CB014496A11DB11D8093EF
:1007B0008B0290938C02A0938D02B0938E02FF90D7
:1007C000EF90DF90CF9008951F920F920FB60F9287
:1007D00011242F933F938F939F93AF93BF93809157
:1007E000D9029091DA02A091DB02B091DC02309143
:1007F000D80223E0230F2D3720F40196A11DB11D4F
:1008000005C026E8230F0296A11DB11D2093D80232
:100810008093D9029093DA02A093DB02B093DC02BA
:100820008091DD029091DE02A091DF02B091E002A2
:100830000196A11DB11D8093DD029093DE02A0936D
:10084000DF02B093E002BF91AF919F918F913F91F2
:100850002F910F900FBE0F901F9018951F920F921F
:100860000FB60F9211242F933F934F935F936F9383
:100870007F938F939F93AF93BF93EF93FF93E091F9
:100880000201F09103010995FF91EF91BF91AF91A2
:100890009F918F917F916F915F914F913F912F9198
:1008A0000F900FBE0F901F9018951F920F920FB6CA
:1008B0000F9211242F933F934F935F936F937F93E6
:1008C0008F939F93AF93BF93EF93FF93E0910001BA
:1008D000F09101010995FF91EF91BF91AF919F9127
:1008E0008F917F916F915F914F913F912F910F90D9
:1008F0000FBE0F901F90189508958CBD9DBD089553
:100900001F920F920FB60F9211240F900FBE0F90EF
:100910001F9018951F920F920FB60F9211242F93CC
:100920003F934F935F936F937F938F939F93AF9377
:10093000BF93EF93FF938091B900887F803609F4CD
:100940009CC068F5883209F45BC090F4803109F4EA
:1009500054C038F4882309F4F6C0883009F44DC037
:10096000F6C0883109F44CC0803209F45DC0EFC094
:10097000803409F468C048F4803309F455C08833E2
:1009800009F0E5C080932903D8C0803509F44FC031
:10099000883509F45DC0883409F0D9C0D6C08839DB
:1009A00009F4C7C0A8F4883709F467C038F488365A
:1009B00009F463C0803709F460C0C9C0883809F4FD
:1009C000B8C0803909F45FC0803809F0C0C05BC08E
:1009D000803B09F486C038F4803A09F466C0883A4E
:1009E00009F47FC0B4C0803C09F4A7C0883C09F476
:1009F000A4C0883B09F48AC0AAC08091260310C015
:100A00009091280380912703981770F5E0912803AF
:100A100081E08E0F80932803F0E0EB5FFC4F808134
:100A20008093BB0085EC86C0809329038EC0E09143
:100A3000280381E08E0F809328038091BB00F0E0B3
:100A4000EB5FFC4F808390912803809127036EC059
:100A5000E091280381E08E0F809328038091BB00F2
:100A6000F0E0EB5FFC4F808380912A0381116DC021
:100A700081E08093250384EA61C083E080932B03A7
:100A80001092D502CFCF8091D502803208F051C0AC
:100A9000E091D50281E08E0F8093D5028091BB005A
:100AA000F0E0EB54FD4F8083BDCF85EC8093BC001C
:100AB00010922B038091D502803230F4E091D50260
:100AC000F0E0EB54FD4F10826091D50270E0E091B0
:100AD000B302F091B40285EB92E009951092D50231
:100AE00036C084E080932B031092B2021092B102C0
:100AF000E091AF02F091B00209958091B1028111AD
:100B000005C081E08093B10210928F02E091B202A1
:100B100081E08E0F8093B202F0E0E157FD4F8081BB
:100B20008093BB009091B2028091B102981708F4B3
:100B300079CF85E88093BC000AC085EC8093BC0027
:100B400010922B0304C0109229030E94A301FF916D
:100B5000EF91BF91AF919F918F917F916F915F9135
:100B60004F913F912F910F900FBE0F901F901895AE
:100B7000CF92DF92EF92FF920F931F93CF93DF9369
:100B8000CDB7DEB7C058D1090FB6F894DEBF0FBE9F
:100B9000CDBF7C010E94A80D8C0180E2EAE2F1E069
:100BA000DE01AF59BF4F01900D928A95E1F76AE6D9
:100BB00071E0CE0101966C010E94FE0E6CE671E0C0
:100BC000CE0107960E94FE0E6DE671E0CE010D96F5
:100BD0000E94FE0E60E771E0CE0143960E94FE0E79
:100BE0006EE671E0CE0149960E94FE0E64E771E068
:100BF000CE014F960E94FE0E65E771E0CE0185960C
:100C00000E94FE0E68E771E0CE018B960E94FE0EF8
:100C10006CE771E0CE01C1960E94FE0E6EE771E0B6
:100C2000CE01C7960E94FE0E6FE771E0CE01CD9611
:100C30000E94FE0E62E871E0CE018D5B9F4F0E9424
:100C4000FE0E6CE871E0CE01875B9F4F0E94FE0EA6
:100C500066E871E0CE01815B9F4F0E94FE0E6BE85B
:100C600071E0CE018B5A9F4F0E94FE0E6AE871E040
:100C7000CE01855A9F4F0E94FE0EFE01EF59FF4F95
:100C800020E030E041915191CA010496801791070C
:100C90002CF04450510904171507B4F42F5F3F4F4F
:100CA0002031310579F768E272E0C7010E94FE0E3B
:100CB0008E010F591F4F06501109C8010E94DF0E07
:100CC0000C151D05C1F70CC086E0829FB001839F03
:100CD000700D11246C0D7D1DC7010E94E40EE8CF3C
:100CE000C701C058DF4F0FB6F894DEBF0FBECDBFAF
:100CF000DF91CF911F910F91FF90EF90DF90CF90F8
:100D00000895E0914E03F0914F030190F081E02DA2
:100D1000682F8EE493E00994CF92DF92EF92FF92D6
:100D20000F931F93CF93DF93909103049F3F39F468
:100D30008EBD00000DB407FEFDCF8EB544C0E82E79
:100D4000C7E0D0E0D12C01E010E0DD0C60E0809144
:100D500003040E94ED02B8010C2E01C0660F0A9434
:100D6000EAF76E21809101040E94ED0261E080911A
:100D700003040E94ED022091020430E0F901EA50E0
:100D8000FF4F8491F901EE51FF4FC490F901E253F6
:100D9000FF4FF490FF2071F081110E94C402EF2DEB
:100DA000F0E0EE0FFF1FEC53FF4FA591B491EC91D3
:100DB000EC2129F4219708F0C8CF8D2D04C08D2D8A
:100DC0008160D82EF7CFDF91CF911F910F91FF90C7
:100DD000EF90DF90CF90089590912B039111FCCF6D
:100DE000613208F060E291E090932B0390932A0324
:100DF0002FEF2093290310922803260F2093270317
:100E00009093260390912603880F892B80932603C5
:100E100080912503813061F410922503809126038F
:100E20008093BB008091BC0083FDF8CF85EC01C0AE
:100E300085EE8093BC0080912B038130E1F380919B
:100E40002803861710F460912803A5E0B3E02EE292
:100E500033E0F9018E2F821B861718F48D91819350
:100E6000F9CF10922D0360932C03862F08952091C3
:100E7000040390910303213208F04AC080912B03B0
:100E80008111FCCF32E030932B0331E030932A0301
:100E90003FEF309329031092280320932703A3EEFA
:100EA000B2E045E053E0FA013E2F341B321718F44C
:100EB0003D913193F9CF1092260320912603990F8B
:100EC000922B9093260390912503913061F4109218
:100ED0002503909126039093BB009091BC0093FD55
:100EE000F8CF95EC01C095EE9093BC0090912B0348
:100EF0009230E1F3909129039F3F79F0809129038B
:100F0000803241F080912903803331F084E005C0C4
:100F100081E003C082E001C083E01092E2021092FF
:100F200004031092E1020895CF92DF92EF92FF92B4
:100F3000CF93C82F809100048F3F09F040C080916B
:100F4000F70391E09093E102809303031092E20291
:100F5000109204036C2F8BEE93E00E9431020E94EA
:100F6000370763E08091F7030E94EC068BEE93E075
:100F70000E94E5016C01990FEE08FF08FE2CED2C94
:100F8000DC2CCC248BEE93E00E94E501AC01990FA0
:100F9000660B770BC42AD52AE62AF72AFE2CED2CFD
:100FA000DC2CCC248BEE93E00E94E501AC01990F80
:100FB000660B770BC42AD52AE62AF72A33C080911C
:100FC00003048F3F21F482E591E00E947D0460E0FC
:100FD000809100040E94ED028C2F80680E948C0694
:100FE00080E00E948C06C82ED12CE12CF12CFE2C26
:100FF000ED2CDC2CCC2480E00E948C06C82AFE2C30
:10100000ED2CDC2CCC2480E00E948C06C82A61E008
:10101000809100040E94ED02809103048F3F11F43F
:101020000E947C04C701B601CF91FF90EF90DF9042
:10103000CF900895CF93DF93C82F809100048F3F06
:1010400039F58091F70391E09093E10280930303D7
:101050001092E202109204036C2F8BEE93E00E9438
:1010600031020E94370762E08091F7030E94EC068C
:101070008BEE93E00E94E501C82F8BEE93E00E9477
:10108000E50120E030E03C2FE901C82BD92B29C035
:10109000809103048F3F21F482E591E00E947D045A
:1010A00060E0809100040E94ED028C2F80680E9415
:1010B0008C0680E00E948C06C82F80E00E948C067F
:1010C0002C2F30E0322F2227E901C82B61E08091DC
:1010D00000040E94ED02809103048F3F11F40E94EE
:1010E0007C04CE01DF91CF9108958F929F92AF92B1
:1010F000BF92CF92DF92EF92FF928AEF0E94940705
:101100006115710520E88207910509F47CC04091C2
:101110000404509105044A01A12CB12CC72ED82EED
:10112000E92EFF24E7FCFA94C818D908EA08FB085E
:10113000DC01CB0137E0B595A795979587953A9552
:10114000D1F7B501A401440F551F661F771F4C014D
:101150005D01841A950AA60AB70AA5019401A09117
:101160000604B09107040E94001A4B015C01FBE0E9
:10117000B594A79497948794FA95D1F7A70196010F
:10118000C701B6010E94C8199B01AC01ACE055959E
:10119000479537952795AA95D1F7A0910804B09166
:1011A00009040E94001ADC01CB012EE0B595A79539
:1011B000979587952A95D1F7A5019401280F391F96
:1011C0004A1F5B1F2093FC033093FD034093FE03F3
:1011D0005093FF03A5E0B0E00E940B18DC01CB01A7
:1011E00080589F4FAF4FBF4F692F7A2F8B2F992772
:1011F00087FD9A950E94EE1620E030E048EC52E41C
:101200000E94C91804C060E070E080EC9FE7FF9086
:10121000EF90DF90CF90BF90AF909F908F90089508
:101220004F925F926F927F928F929F92AF92BF92F6
:10123000CF92DF92EF92FF920E9475088DEF0E948D
:101240001A08A0E0B0E0811520E89207A105B105D9
:1012500009F4DBC08090FC039090FD03A090FE0396
:10126000B090FF033CE2931A31E0A30AB1083EE0DC
:10127000880F991FAA1FBB1F3A95D1F740912004F0
:1012800050912104052E000C660B770BE4E1440F0E
:10129000551F661F771FEA95D1F76C017D01C41AAF
:1012A000D50AE60AF70AA0912204B0912304A50109
:1012B00094010E94001AC61AD70AE80AF90A40E403
:1012C000D40EE11CF11CFFE0F594E794D794C79489
:1012D000FA95D1F7A09124040A2E000CBB0BA501AE
:1012E00094010E94001A2B013C01AAE075946794B6
:1012F00057944794AA95D1F7A0911F04B0E00E949B
:101300000B18DC01CB012BE0B595A7959795879538
:101310002A95D1F7BC01CD0170588F4F9F4FA30183
:1013200092010E94C819DC01CB013AE0B595A7955E
:10133000979587953A95D1F79C01AD01405E5F4F37
:10134000A0911D04B0911E040E94001ADC01CB0183
:10135000905EAF4FBF4FBC01CD014EE09595879594
:10136000779567954A95D1F7A70196010E94C8190C
:101370006B017C015FE095958795779567955A9508
:10138000D1F79B01AC010E94C8199B01AC0167E039
:1013900055954795379527956A95D1F7A0911C04E7
:1013A000B0E00E940B18DC01CB0174E0B595A79565
:1013B000979587957A95D1F7A7019601281B390B48
:1013C0004A0B5B0BDA01C90157FF03C080E090E0D4
:1013D000DC0181309105A10539E1B30724F080E0FB
:1013E00090E0A0E0B9E1BC01CD012CE09595879596
:1013F000779567952A95D1F70E94EE1620E030E0A8
:1014000040E85AE30E944D1704C060E070E080ECB1
:101410009FE7FF90EF90DF90CF90BF90AF909F90AD
:101420008F907F906F905F904F9008952F923F9292
:101430004F925F926F927F928F929F92AF92BF92E4
:10144000CF92DF92EF92FF920F931F93CF93DF9390
:10145000CDB7DEB7A2970FB6F894DEBF0FBECDBFF3
:101460000E94750887EF0E9494076F8378878987A9
:101470009A87611571058048910509F4FDC1809135
:10148000FC039091FD03A091FE03B091FF036C015A
:101490007D01FF0CCC08DC2C76019C01AD016C2D8C
:1014A0007C2D8C2D9C2D345F4140510961097109BF
:1014B000810991092AA339A349835A836B837C83C9
:1014C0008D839E8359016A017B018C010E94081A59
:1014D0002E8B3F8B488F598F6A8F7B8F8C8F9D8F80
:1014E000809114048E8F909115049B87A091120413
:1014F000AF8FB0911304BC87E0911004E8A3F09182
:101500001104FD87B0900D04A0900C041B2D110F49
:10151000110BC12ED12EE12EF12E012F2AA139A1BE
:1015200049815A816B817C818D819E810E94081A3C
:101530000CE00E94011B19012A013B014C01B090F3
:101540000F04A0900E041B2D110F110BC12ED12ED4
:10155000E12EF12E012F2E893F89488D598D6A8DFC
:101560007B8D8C8D9D8D0E94081A08E00E941A1BAD
:1015700051016201730184010E94381B70588F4F22
:101580009F4F20900A0430900B045101C12CD12CA4
:10159000E12CF12C00E010E00E94081A01E20E9408
:1015A0001A1B2E873F87488B598B6A8B7B8B8C8BC2
:1015B0009D8BA0E00E944A1B09F463C1AE8C1B8581
:1015C000110F110BBB84C12ED12EE12EF12E012F54
:1015D0002E893F89488D598D6A8D7B8D8C8D9D8D8F
:1015E0000E94081A19012A013B014C01AF8C1C858D
:1015F000110F110BBC84C12ED12EE12EF12E012F23
:101600002AA139A149815A816B817C818D819E817A
:101610000E94081A01E10E94011B59016A017B0125
:101620008C019101A201B301C4010E94381B190170
:101630002A013B014C014F81588569857A8584E0F8
:1016400075956795579547958A95D1F780E090E015
:10165000A0E1B0E0841B950BA60BB70B6C017D01DC
:10166000FF0CCC08DC2C76019C01AD016C2D7C2D8F
:101670008C2D9C2D0FE10E94011BF901B42FA52F89
:101680006C837D8389839A8328A19D85990F990B0B
:101690003D85492F592F692F792F892F03E20E9409
:1016A000011B59016A017B018C019101A201B30167
:1016B000C4010E94381B59016A017B018C019F0102
:1016C0004B2F5A2F6C817D8189819A810E94411B09
:1016D0004901542E652EB62FA72FF82FE92F03E0CE
:1016E0000E94011B5401C52CD62CEB2EFA2E0F2F75
:1016F0001E2F0E94411B59016A017B01782E192F70
:1017000003E00E94011B072D0E94411B03E00E9481
:10171000011B5401C52CD62CEB2EFA2E0F2F1E2F99
:101720000E94411B02E00E94011B0F2F0E94411BDF
:1017300001E00E94011B0F2F0E94411BAE84BF8459
:10174000C888D988EA88FB880C891D890E94631A99
:101750002B873F8349835A836B837C838D839E834E
:101760000DE00E941A1B922E832E742E652E562E8B
:10177000472E382E292E30911B0420911A04932FC6
:10178000990F990BA92CB82CC72CD62CE52CF42C2E
:10179000032D122D492F592F692F792F892F0E9440
:1017A000081A0E94081A09E10E941A1B59016A01CD
:1017B0007B018C012B853F8149815A816B817C8122
:1017C0008D819E810E94381B19012A013B014C0129
:1017D0003091190420911804932F990F990BAB8421
:1017E000BF80C980DA80EB80FC800D811E81492F8B
:1017F000592F692F792F892F0E94081A03E10E941F
:101800001A1B59016A017B018C019101A201B301EC
:10181000C4010E94381B08E00E941A1B522E632E3E
:10182000742E852E962EF72FE82FB92F309117049E
:1018300020911604932F990F990B492F592F692F37
:10184000792F892F04E00E94011B59016A017B0155
:101850008C01252D362D472D582D692D7F2F8E2F4C
:101860009B2F0E94381B0E946A1920E030E040E85C
:101870005BE30E944D1708C060E070E080EC9FE7DA
:1018800003C060E070E0CB01A2960FB6F894DEBF13
:101890000FBECDBFDF91CF911F910F91FF90EF90C1
:1018A000DF90CF90BF90AF909F908F907F906F9080
:1018B0005F904F903F902F900895009769F0FC0142
:1018C00001900020E9F73197AF01481B590BBC018B
:1018D0008EE493E00C94BC0D80E090E008958F922C
:1018E0009F92AF92BF920F931F93CF93DF93CDB789
:1018F000DEB7A1970FB6F894DEBF0FBECDBF19A219
:10190000423008F44AE08E010F5D1F4F842E912C67
:10191000A12CB12CA50194010E94D819E62FB90180
:10192000CA0101501109EA3014F4E05D01C0E95C1C
:10193000D801EC93232B242B252B61F7C8010E949F
:101940005D0CA1960FB6F894DEBF0FBECDBFDF9140
:10195000CF911F910F91BF90AF909F908F9008955E
:101960004F925F926F927F928F929F92AF92BF92AF
:10197000CF92DF92EF92FF926B017C019B01AC0151
:101980000E94C319882319F08EE292E01AC0460122
:101990005701E894B7F82FEF3FEF4FE75FE7C50136
:1019A000B4010E94C319811110C02FEF3FEF4FE720
:1019B0005FE7C501B4010E94E716181634F482E30C
:1019C00092E00E945D0C7C017FC02FEF3FEF4FE75C
:1019D0005FE4C701B6010E94BE1918161CF486E325
:1019E00092E0EFCF2FEF3FEF4FE75FECC701B6017B
:1019F0000E94E71687FDF3CF20E030E0A901C70180
:101A0000B6010E94E71687FF09C08DE20E94810699
:101A10005C01F7FAF094F7F8F09402C0A12CB12C15
:101A20002AE037ED43EA5BE3C701B6010E945D1887
:101A30002B013C010E943B196B017C010E94EC16BA
:101A40009B01AC01C301B2010E945C182B013C0157
:101A50004AE0C701B6010E946F0C7C01EA0CFB1C36
:101A60008EE20E948106E80EF91E20E030E040E29E
:101A700051E4C301B2010E944D172B013C010E94A9
:101A80003B194B01A12CB12C4AE0C501B4010E94C5
:101A90006F0CE80EF91EC501B4010E94EC169B0103
:101AA000AC01C301B2010E945C1820E030E040E2CA
:101AB00051E40E944D170E943B1980E090E04AE0FB
:101AC0000E946F0CE80EF91E8EEF91E00E945D0CF3
:101AD0008E0D9F1DFF90EF90DF90CF90BF90AF9045
:101AE0009F908F907F906F905F904F900895CF92CE
:101AF000DF92EF92FF92CF93DF936C01990FEE0884
:101B0000FF08F7FE12C08DE20E948106EC016627F5
:101B10007727CB016C197D098E099F094AE00E9445
:101B20006F0C7C01EC0EFD1E06C04AE0C701B60139
:101B30000E946F0C7C018EEF91E00E945D0C8E0D77
:101B40009F1DDF91CF91FF90EF90DF90CF90089590
:101B500080E480937C0080917A00806480937A0096
:101B600080917A0086FDFCCF8091780020917900E9
:101B700090E0922B08950895CF92DF92EF92FF921A
:101B80000F931F93CF93DF936C017A018B01C0E019
:101B9000D0E0CE15DF0589F0D8016D918D01D60119
:101BA000ED91FC910190F081E02DC6010995892B02
:101BB00011F47E0102C02196ECCFC701DF91CF91D5
:101BC0001F910F91FF90EF90DF90CF900895CF93EA
:101BD000DF93D82FC62F809100048F3FC9F48091E6
:101BE000F70391E09093E102809303031092E202E5
:101BF000109204036D2F8BEE93E00E9431026C2F44
:101C00008BEE93E00E943102DF91CF910C94370765
:101C1000809103048F3F21F482E591E00E947D04CE
:101C200060E0809100040E94ED028D2F8F770E946A
:101C30008C068C2F0E948C0661E0809100040E942B
:101C4000ED02809103048F3F21F4DF91CF910C943A
:101C50007C04DF91CF910895CF93C82F8091000429
:101C60008F3FE9F48091F70391E09093E102809334
:101C700003031092E202109204036C2F8BEE93E0A8
:101C80000E9431020E94370761E08091F7030E94B1
:101C9000EC068BEE93E00E94E501C82F20C08091F6
:101CA00003048F3F21F482E591E00E947D0460E00F
:101CB000809100040E94ED028C2F80680E948C06A7
:101CC00080E00E948C06C82F61E0809100040E9491
:101CD000ED02809103048F3F11F40E947C048C2F4D
:101CE000CF9108950E941A08982789279827089568
:101CF000CF93DF93FC0144815581608171818EE433
:101D000093E00E94BC0DEC018EEF91E00E945D0C0F
:101D10008C0F9D1FDF91CF9108950F931F93CF9349
:101D2000DF93EC0188819981009729F02A813B811A
:101D30002617370788F48B016F5F7F4F0E94831C43
:101D4000009761F0998388831B830A832C813D81EE
:101D5000232B11F4FC01108281E001C080E0DF91AF
:101D6000CF911F910F910895EF92FF920F931F93C0
:101D7000CF93DF93EC017B018A01BA010E948D0EA3
:101D80002881398181110DC02115310519F0C90152
:101D90000E94EB1B198218821D821C821B821A82F0
:101DA00006C01D830C83B701C9010E94641DCE01CA
:101DB000DF91CF911F910F91FF90EF900895FC015B
:101DC000808191810C94EB1BFB01DC0111961C922C
:101DD0001E9213961C921E92129715961C921E929A
:101DE00014978617970749F0608171816115710515
:101DF00021F0448155810C94B40E0895FC011182A8
:101E0000108213821282158214826115710551F0BD
:101E1000FB0101900020E9F73197AF01461B570BFA
:101E20000C94B40E0895CF93DF93CDB7DEB7C658A8
:101E3000D1090FB6F894DEBF0FBECDBF789484B53C
:101E4000826084BD84B5816084BD85B5826085BDB6
:101E500085B5816085BD80916E00816080936E0044
:101E60001092810080918100826080938100809136
:101E700081008160809381008091800081608093E7
:101E800080008091B10084608093B1008091B000A7
:101E900081608093B00080917A00846080937A00A2
:101EA00080917A00826080937A0080917A008160CC
:101EB00080937A0080917A00806880937A001092F3
:101EC000C100E0915E03F0915F0382E08083E091C6
:101ED0005A03F0915B031082E0915C03F0915D0383
:101EE0008FEC808310926603E0916203F0916303AC
:101EF00086E08083E0916003F091610380818061DE
:101F00008083E0916003F091610380818860808329
:101F1000E0916003F0916103808180688083E091AB
:101F20006003F091610380818F7D808360E082E0B7
:101F30000E941D0360E083E00E941D0361E08DE0CC
:101F40000E941D0361E082E00E94ED0261E083E0F7
:101F50000E94ED028FE993E09093010180930001CC
:101F6000809169008C7F826080936900E89A80E6A6
:101F700092E0909303018093020180916900837F36
:101F8000886080936900E99A0E94930360934502F8
:101F90007093460280934702909348020E949303F5
:101FA00060934102709342028093430290934402F3
:101FB00087E78093F703809100048F3F41F51092EB
:101FC0002D0310922C031092E2021092040310923F
:101FD0002B0381E080932A031092250361E082E1C4
:101FE0000E94ED0261E083E10E94ED028091B90060
:101FF0008E7F8093B9008091B9008D7F8093B90066
:1020000088E48093B80085E48093BC004EC061E012
:102010000E94ED0261E0809100040E941D03809106
:1020200003048F3F09F034C01FB7F8948091400239
:10203000811127C0E8EDF0E08491ECEEF0E094919E
:10204000E82FF0E0EE0FFF1FE055FF4FA591B49190
:10205000EC91E92321F461E08AE00E94ED0261E065
:102060008AE00E941D038CB580618CBD8CB58064B4
:102070008CBD61E08DE00E941D0361E08BE00E9459
:102080001D03809140028F5F809340021FBF0DC0EF
:1020900061E00E941D0361E0809101040E941D0324
:1020A00060E0809102040E941D0380ED0E942C0ECE
:1020B000803609F00BC666EB80EE0E94E70D6CE2FD
:1020C00071E080E090E00E94590383EF0E942C0EA3
:1020D00080FF05C064E670E080E090E0F4CF88E81F
:1020E0000E94720E90930504809304048AE80E9473
:1020F000720E90930704809306048CE80E94720E7F
:1021000090930904809308048EE80E94720E9093C5
:102110000B0480930A0480E90E94720E90930D04D0
:1021200080930C0482E90E94720E90930F048093B6
:102130000E0484E90E94720E90931104809310049F
:1021400086E90E94720E909313048093120488E92A
:102150000E94720E90931504809314048AE90E94E1
:10216000720E90931704809316048CE90E94720EED
:1021700090931904809318048EE90E94720E909334
:102180001B0480931A0481EA0E942C0E80931C0485
:1021900081EE0E94720E90931E0480931D0483EEC4
:1021A0000E942C0E80931F0484EE0E942C0E182F88
:1021B00085EE0E942C0E282F2F7030E1139FC00156
:1021C0001124822B909321048093200486EE0E9498
:1021D0002C0E182F85EE0E942C0E90E034E0959581
:1021E00087953A95E1F740E1149F90011124822BE5
:1021F000932B909323048093220487EE0E942C0E4D
:10220000809324048DEE80932604809127048F719F
:10221000806A8093270480912504807C8093250424
:1022200065E082EF0E94E70D90912504692F6770A9
:1022300080E2689F90011124892F86958695869566
:102240008770E8E08E9FB0011124622B732B97FBFF
:10225000992790F9692B85EF0E94E70D909126044C
:10226000692F6770F0E26F9F90011124892F869586
:1022700086958695877048E0849FB0011124622B73
:10228000732B9295969596959370692B84EF0E9487
:10229000E70D28EE822E23E0922EA12CB12C8EE4A5
:1022A00093E00E94D300181619060CF048C38EE480
:1022B00093E00E94B100C1978432910508F037C3C2
:1022C0008C5C9F4FFC010C94FA1980918A02882340
:1022D00019F00E941009F0C2609188027091890281
:1022E00061157105B1F3072E000C880B990B0E9444
:1022F000EE169B01AC016091840270918502809181
:102300008602909187020E94C9181092840210924E
:102310008502109286021092870210928902109212
:102320008802CAC280918A02882319F00E94160A84
:1023300025C0609182027091830261157105B1F32D
:10234000072E000C880B990B0E94EE169B01AC0126
:1023500060917E0270917F02809180029091810253
:102360000E94C91810927E0210927F021092800281
:1023700010928102109283021092820220E030E0DB
:1023800048EC52E40E94C91897C280918A028823BF
:1023900019F00E947508F2CF60917C0270917D0265
:1023A0006115710519F40E94750886C2072E000C8C
:1023B000880B990B0E94EE169B01AC01609178028C
:1023C0007091790280917A0290917B020E94C918E3
:1023D000109278021092790210927A0210927B0287
:1023E00010927D0210927C0267C280918A028E0157
:1023F0000F5F1F4F882341F0C8010E94B805C80134
:102400000E94780EC801EEC06AE671E0C8010E9421
:10241000FE0E6CE671E0CE0107960E94FE0E6DE6A0
:1024200071E0CE010D960E94FE0E60E771E0CE01D4
:1024300043960E94FE0E6EE671E0CE0149960E9420
:10244000FE0E64E771E0CE014F960E94FE0E65E736
:1024500071E0CE0185960E94FE0E68E771E0CE0124
:102460008B960E94FE0E6CE771E0CE01C1960E9431
:10247000FE0E6EE771E0CE01C7960E94FE0E6FE77A
:1024800071E0CE01CD960E94FE0E62E871E0CE01B1
:102490008D5B9F4F0E94FE0E6CE871E0CE01875B62
:1024A0009F4F0E94FE0E66E871E0CE01815B9F4F58
:1024B0000E94FE0E6BE871E0CE018B5A9F4F0E9486
:1024C000FE0E6AE871E0CE01855A9F4F0E94FE0E13
:1024D000EEE4F2E02FEF3FEF40E050E080E090E0EC
:1024E000608171814617570714F4AB019C0111926A
:1024F000119201968031910599F72F3FFFEF3F0729
:1025000061F46EE871E0CE018F599F4F0E94FE0E7C
:10251000CE018F599F4F7C010EC086E0829FB00193
:10252000839F700D1124600F711FCE018F599F4F33
:102530000E94E40EEDCF96E0E91AF108C7010E946F
:10254000DF0EE016F106B9F7A7968EAD9FADA797FF
:10255000892B09F43FC06EE871E0A3968EAD9FAD64
:10256000A3970E945B1D892BA9F5C8010E94B8059D
:10257000A3968EAD9FADA397009789F069817A816C
:102580006115710551F0A5964EAD5FADA5972D81F2
:102590003E814217530708F0A2C30E94EB1B8981BA
:1025A0009A81A3969FAF8EAFA3978B819C81A596AE
:1025B0009FAF8EAFA5978D819E81A7969FAF8EAF5F
:1025C000A7971A8219821C821B821E821D82C80153
:1025D0000E94DF0ECE018F599F4F0E94780ECE01D0
:1025E0008F599F4F0E94DF0EAAC160913A027091ED
:1025F0003B02072E000C880B990B0E94EE162CE470
:102600003CEA49E150E40E944D1726E636E646E6EC
:1026100050E40E94C9182B013C010E9493030091D1
:102620004102109142022091430230914402601B0A
:10263000710B820B930BA50194010E94D819CA015A
:10264000B9010E94EC1627E73CEC4BE252E30E94F2
:102650005D186B017C019B01AC01C301B2010E94BA
:10266000C9183B018C0180918A02882391F085E989
:1026700091E00E945D0C80913C0290913D020E948D
:10268000770D89EA91E00E945D0CC701B6010E94B6
:10269000B00C10923B0210923A020E949303609396
:1026A000410270934202809343029093440220E0DF
:1026B00030E048EC52E4B301C8010E94BE1918167C
:1026C0004CF020E030E0A901B301C8010E94E716F8
:1026D00087FF04C0612C712C00E81FEBC301D801F7
:1026E0008093740290937502A0937602B093770260
:1026F000E1C0C0907402D0907502E0907602F09034
:102700007702A70196016091700270917102809129
:102710007202909173020E94E71687FF35C02EEA7D
:1027200037E441E65EE3C701B6010E944D179B0105
:10273000AC01C701B6010E945D18609370027093EE
:102740007102809372029093730200912C04109195
:102750002D04085D1F4FB80188E294E00E948D0EA1
:10276000882391F0209128043091290480912C0431
:1027700090912D0465ED71E0820F931F0E94641DFE
:1027800010932D0400932C046091700270917102DB
:1027900080917202909173020E94B00C10927002AC
:1027A00010927102109272021092730210923F0204
:1027B00010923E020E94930360934A0270934B0270
:1027C00080934C0290934D02BAC000913C0210914C
:1027D0003D020E949303C0904502D0904602E090D3
:1027E0004702F09048026C197D098E099F09A501E6
:1027F00094010E94D819CA01B9010E94EC1627E77A
:102800003CEC4BE252E30E945D186B017C01B80185
:10281000110F880B990B0E94EE1624E83DE04FE85B
:102820005EE30E944D1720E030E041E655E40E944F
:102830004D17A70196010E94C9183B018C01809198
:102840008A02882391F085E991E00E945D0C8091D5
:102850003C0290913D020E94770D89EA91E00E942E
:102860005D0CC701B6010E94B00C10923D0210929F
:102870003C020E949303609345027093460280934A
:1028800047029093480220E030E048EC52E4B30164
:10289000C8010E94BE1918164CF020E030E0A901D2
:1028A000B301C8010E94E71687FF04C0612C712C98
:1028B00000E81FEBB301C8010E94B00C40C08EE2DB
:1028C00094E00E94780E40E050E060E072E08EE21A
:1028D00094E010C00E9493034AE00E946F0C2BC04A
:1028E00088E294E00E94780E40E050E060E072E000
:1028F00088E294E00E94B40E22C081E092E00E943F
:102900005D0C8EEF91E00E945D0C9FE088E10FB6B8
:10291000F894A895809360000FBE90936000FFCF5D
:1029200090918A0281E0892780938A0208C08AE018
:1029300092E00E945D0C8EEF91E00E945D0C0E947F
:10294000930300914A0210914B0220914C02309166
:102950004D022B013C01401A510A620A730AC3015D
:10296000B20120E737E140E050E00E94D819653617
:1029700071058105910508F071C0809149028111AE
:102980006FC081E08093490260913E0270913F02E6
:10299000072E000C880B990B0E94EE162CE43CEAE3
:1029A00049E150E40E944D1726E636E646E650E43B
:1029B0000E94C9186B017C01C301B201A5019401F9
:1029C0000E94D819CA01B9010E94EC1627E73CEC15
:1029D0004BE252E30E945D189B01AC01C701B601B6
:1029E0000E94C9186B017C0110923F0210923E02B6
:1029F00040924A0250924B0260924C0270924D02F9
:102A000020E030E048EC52E40E94BE1918164CF069
:102A100020E030E0A901C701B6010E94E71687FF58
:102A200006C0C12CD12C90E8E92E9FEBF92E209105
:102A30007002309171024091720250917302C7018D
:102A4000B6010E94BE1918165CF4C0927002D092B2
:102A50007102E0927202F092730202C01092490277
:102A60000E94930328E833E140E050E00E94D81927
:102A7000653671058105910508F0ACC080916E0244
:102A80008111AAC081E080936E020E94A80D7C0192
:102A900080E2EAE0F1E0DE01AF59BF4F01900D9214
:102AA0008A95E1F76AE671E08E010F5F1F4FC8015A
:102AB0000E94FE0E6CE671E0CE0107960E94FE0EAB
:102AC0006DE671E0CE010D960E94FE0E60E771E0AA
:102AD000CE0143960E94FE0E6EE671E0CE0149964D
:102AE0000E94FE0E64E771E0CE014F960E94FE0E3A
:102AF00065E771E0CE0185960E94FE0E68E771E001
:102B0000CE018B960E94FE0E6CE771E0CE01C1965D
:102B10000E94FE0E6EE771E0CE01C7960E94FE0E87
:102B20006FE771E0CE01CD960E94FE0E62E871E083
:102B3000CE018D5B9F4F0E94FE0E6CE871E0CE01CE
:102B4000875B9F4F0E94FE0E66E871E0CE01815BBD
:102B50009F4F0E94FE0E6BE871E0CE018B5A9F4F93
:102B60000E94FE0E6AE871E0CE01855A9F4F0E94D6
:102B7000FE0EFE01EF59FF4F40E050E021913191F0
:102B8000C90104968E159F0534F024503109E216D0
:102B9000F3060CF0ADC04F5F5F4F4031510571F748
:102BA00068E272E0CE018F579F4F0E94FE0EFE0139
:102BB000EF59FF4F7F01F6E0EF1AF108C7010E94BD
:102BC000DF0EE016F106B9F7CE018F579F4F0E9436
:102BD000DF0E02C010926E020E94930320E23EE4D8
:102BE00040E050E00E94D8196536710581059105D5
:102BF00008F065C080916F02811163C081E080930D
:102C00006F020E9410099B01AC01609184027091D7
:102C1000850280918602909187020E945D186093E0
:102C2000840270938502809386029093870280913C
:102C3000880290918902019690938902809388027C
:102C40000E94160A9B01AC0160917E0270917F0286
:102C500080918002909181020E945D1860937E02B3
:102C600070937F0280938002909381028091820210
:102C700090918302019690938302809382020E9436
:102C800075089B01AC016091780270917902809186
:102C90007A0290917B020E945D1860937802709393
:102CA000790280937A0290937B0280917C029091CA
:102CB0007D02019690937D0280937C0202C0109267
:102CC0006F020E9493030E947301E9CA46E150E03B
:102CD0006EE072E08EE294E00E94B40EDACA0E94C6
:102CE000641D8D819E81A7969FAF8EAFA7976DCCF7
:102CF000FA01EE0FFF1FE25BFD4F8081918101968B
:102D00009183808386E0849FB001859F700D11249C
:102D1000600F711FCE018F579F4F0E94E40E47CF67
:102D200088E294E00E94DF0E8EE294E00C94DF0EC5
:102D3000EEE4F3E01382128288EE93E0A0E0B0E0CC
:102D400084839583A683B7832EE431E03183208387
:102D500025EC30E03587248724EC30E03787268760
:102D600020EC30E0318B208B21EC30E0338B228B58
:102D700022EC30E0358B248B26EC30E0378B268B31
:102D8000118E128E138E148EEBEEF3E013821282EC
:102D900084839583A683B7838EE591E091838083B6
:102DA00065E272E08EE294E00E94FE0E60E072E066
:102DB00088E294E00E94FE0EE7EFF3E08AE081876C
:102DC0008BE082878CE083878DE0848708950E9462
:102DD000291708F481E00895E89409C097FB3EF4B0
:102DE00090958095709561957F4F8F4F9F4F992358
:102DF000A9F0F92F96E9BB279395F69587957795D6
:102E00006795B795F111F8CFFAF4BB0F11F460FF95
:102E10001BC06F5F7F4F8F4F9F4F16C0882311F0ED
:102E200096E911C0772321F09EE8872F762F05C001
:102E3000662371F096E8862F70E060E02AF09A959C
:102E4000660F771F881FDAF7880F9695879597F991
:102E50000895990F0008550FAA0BE0E8FEEF16162B
:102E60001706E807F907C0F012161306E407F5077E
:102E700098F0621B730B840B950B39F40A2661F0F2
:102E8000232B242B252B21F408950A2609F4A14095
:102E9000A6958FEF811D811D08950E9460170C94E7
:102EA000D1170E94C31738F00E94CA1720F095234B
:102EB00011F00C94BA170C94C01711240C94051837
:102EC0000E94E21770F3959FC1F3950F50E0551FD4
:102ED000629FF001729FBB27F00DB11D639FAA276F
:102EE000F00DB11DAA1F649F6627B00DA11D661FBE
:102EF000829F2227B00DA11D621F739FB00DA11DDF
:102F0000621F839FA00D611D221F749F3327A00D98
:102F1000611D231F849F600D211D822F762F6A2F34
:102F200011249F5750409AF0F1F088234AF0EE0F99
:102F3000FF1FBB1F661F771F881F91505040A9F7C6
:102F40009E3F510580F00C94BA170C9405185F3F12
:102F5000E4F3983ED4F3869577956795B795F79502
:102F6000E7959F5FC1F7FE2B880F911D969587957A
:102F700097F9089597F99F6780E870E060E00895F9
:102F80009FEF80EC089500240A9416161706180681
:102F90000906089500240A9412161306140605065D
:102FA0000895092E0394000C11F4882352F0BB0FEE
:102FB00040F4BF2B11F460FF04C06F5F7F4F8F4F51
:102FC0009F4F089557FD9058440F551F59F05F3F8C
:102FD00071F04795880F97FB991F61F09F3F79F03B
:102FE00087950895121613061406551FF2CF4695BD
:102FF000F1DF08C0161617061806991FF1CF86953F
:103000007105610508940895E894BB276627772722
:10301000CB0197F908950E944D18A59F900DB49F7C
:10302000900DA49F800D911D112408952F923F9221
:103030004F925F926F927F928F929F92AF92BF92C8
:10304000CF92DF92EF92FF920F931F93CF93DF9374
:10305000CDB7DEB7CA1BDB0B0FB6F894DEBF0FBED1
:10306000CDBF09942A88398848885F846E847D841E
:103070008C849B84AA84B984C884DF80EE80FD8020
:103080000C811B81AA81B981CE0FD11D0FB6F89496
:10309000DEBF0FBECDBFED010895A29FB001B39F6B
:1030A000C001A39F700D811D1124911DB29F700D51
:1030B000811D1124911D08955058BB27AA270E94F5
:1030C00074180C94D1170E94C31738F00E94CA17C5
:1030D00020F039F49F3F19F426F40C94C0170EF435
:1030E000E095E7FB0C94BA17E92F0E94E21758F31A
:1030F000BA17620773078407950720F079F4A6F5DD
:103100000C9404180EF4E0950B2EBA2FA02D0B0191
:10311000B90190010C01CA01A0011124FF27591B1C
:1031200099F0593F50F4503E68F11A16F040A22F22
:10313000232F342F4427585FF3CF46953795279593
:10314000A795F0405395C9F77EF41F16BA0B620B92
:10315000730B840BBAF09150A1F0FF0FBB1F661FD9
:10316000771F881FC2F70EC0BA0F621F731F841F1C
:1031700048F4879577956795B795F7959E3F08F042
:10318000B0CF9395880F08F09927EE0F9795879504
:1031900008950E94DD180C94D1170E94CA1758F0A8
:1031A0000E94C31740F029F45F3F29F00C94BA172E
:1031B00051110C9405180C94C0170E94E21768F383
:1031C0009923B1F3552391F3951B550BBB27AA27E0
:1031D00062177307840738F09F5F5F4F220F331F1A
:1031E000441FAA1FA9F335D00E2E3AF0E0E832D0E2
:1031F00091505040E695001CCAF72BD0FE2F29D0E5
:10320000660F771F881FBB1F261737074807AB07B6
:10321000B0E809F0BB0B802DBF01FF2793585F4F2B
:103220003AF09E3F510578F00C94BA170C940518AB
:103230005F3FE4F3983ED4F3869577956795B7950D
:10324000F7959F5FC9F7880F911D9695879597F918
:103250000895E1E0660F771F881FBB1F6217730791
:103260008407BA0720F0621B730B840BBA0BEE1FA6
:1032700088F7E09508950E94EA1788F09F5798F024
:10328000B92F9927B751B0F0E1F0660F771F881F6B
:10329000991F1AF0BA95C9F714C0B13091F00E9485
:1032A0000418B1E008950C940418672F782F88272C
:1032B000B85F39F0B93FCCF3869577956795B395AC
:1032C000D9F73EF490958095709561957F4F8F4F1B
:1032D0009F4F089597FB16F40E94AE190C94711934
:1032E000E894F92F96EBFF2381F0121613061406CB
:1032F000440B9395F695879577956795579540403C
:10330000FF23B9F71BC099270895882351F49850DB
:10331000D2F7872B762F652F542F432F322F20E0A3
:10332000B1F3121613061406440B88233AF09A954B
:10333000440F551F661F771F881FCAF755234AF48D
:10334000440F551F11F460FF04C06F5F7F4F8F4F14
:103350009F4F880F9695879597F90895909580953A
:103360007095609550954095309521953F4F4F4F02
:103370005F4F6F4F7F4F8F4F9F4F08950E942917C8
:1033800008F48FEF08950E942917880B990B089570
:10339000DB018F939F930E940B18BF91AF91A29F67
:1033A000800D911DA39F900DB29F900D1124089543
:1033B000A1E21A2EAA1BBB1BFD010DC0AA1FBB1F39
:1033C000EE1FFF1FA217B307E407F50720F0A21BAB
:1033D000B30BE40BF50B661F771F881F991F1A9418
:1033E00069F760957095809590959B01AC01BD0142
:1033F000CF010895EE0FFF1F0590F491E02D099481
:10340000B7FF0C940B180E940B18821B930B0895A6
:10341000DF93CF931F930F939A9DF02D219FF00D73
:103420008B9DF00D8A9DE02DF10D039FF00D029F05
:10343000E00DF11D4E9DE00DF11D5E9DF00D4F9DC7
:10344000F00D7F936F93BF92AF925F934F93D5012F
:103450000E944D188B01AC01D7010E944D18EB0161
:10346000E80FF91FD6010E94581A2F913F91D601FB
:103470000E944D18C60FD71FE81FF91FAF91BF91CB
:103480000E94581A2F913F910E944D18C60FD71FC6
:10349000E81FF91FD6010E944D18E60FF71F98018B
:1034A000BE01CF0111240F911F91CF91DF9108959B
:1034B0000E944D18460F571FC81FD91F08F4319698
:1034C0000895689401C0E894F92FF12B12F00C9440
:1034D000951AA0E0B0E0EFE6FAE10C941C18092E72
:1034E000059422F40E94F11A112392F4F0E80F26B9
:1034F000FFEFE094F09400951095B094C094D094B0
:10350000A194BF0ACF0ADF0AEF0AFF0A0F0B1F0BB5
:103510000E94A01A07FC0E94F11ACDB7DEB7ECE0BA
:103520000C943818689401C0E8948F929F92CF93BE
:10353000DF930E94A01ADF91CF919F908F90089502
:1035400088249924F401E401B0E49F93AA279A15F2
:103550008B049C04ED05FE05CF05D007A10798F468
:10356000AD2FDC2FCF2FFE2FE92D982C892E982FF1
:10357000872F762F652F542F432F322F2227B850B5
:1035800031F7BF9127C01B2EBF91BB27220F331FDE
:10359000441F551F661F771F881F991F881C991C81
:1035A000EE1FFF1FCC1FDD1FAA1FBB1F8A149B0429
:1035B000EC05FD05CE05DF05A007B10748F08A1828
:1035C0009B08EC09FD09CE09DF09A00BB10B2160B6
:1035D0001A94E1F62EF49401AF01BE01CD01000C66
:1035E000089560957095809590953095409550958B
:1035F00021953F4F4F4F5F4F6F4F7F4F8F4F9F4FE3
:1036000008950F93083090F0982F872F762F652F0D
:10361000542F432F322F22270850F4CF220F331F6D
:10362000441F551F661F771F881F991F0A95B2F701
:103630000F91089597FB10F8169400080F93083027
:1036400098F00850232F342F452F562F672F782FAF
:10365000892F902DF4CF0594979587957795679549
:1036600057954795379527950A95AAF70F9108958D
:103670002A0D3B1D4C1D5D1D6E1D7F1D801F911F62
:1036800008952A193B094C095D096E097F09800BD1
:10369000910B08950024A7FD00942A1730054005DA
:1036A000500560057005800590050895CF93DF9360
:1036B0008230910510F482E090E0E0913604F091C0
:1036C000370420E030E0C0E0D0E0309711F14081D5
:1036D000518148175907C0F04817590761F4828192
:1036E0009381209719F09B838A832BC09093370492
:1036F0008093360426C02115310519F0421753076F
:1037000018F49A01BE01DF01EF010280F381E02D80
:10371000DCCF2115310509F1281B390B2430310587
:1037200090F412968D919C9113976115710521F07B
:10373000FB019383828304C0909337048093360403
:10374000FD01329644C0FD01E20FF31F8193919376
:10375000225031092D933C933AC02091340430918A
:103760003504232B41F42091060130910701309359
:103770003504209334042091040130910501211572
:10378000310541F42DB73EB7409108015091090130
:10379000241B350BE0913404F0913504E217F30754
:1037A000A0F42E1B3F0B2817390778F0AC014E5FB1
:1037B0005F4F2417350748F04E0F5F1F50933504B5
:1037C000409334048193919302C0E0E0F0E0CF0194
:1037D000DF91CF9108950F931F93CF93DF930097BD
:1037E00009F48CC0FC0132971382128200913604D6
:1037F000109137040115110581F420813181820F68
:10380000931F20913404309135042817390779F536
:10381000F0933504E093340471C0D80140E050E0E7
:10382000AE17BF0750F412962D913C911397AD013E
:103830002115310509F1D901F3CF9D01DA01338357
:10384000228360817181860F971F8217930769F425
:10385000EC0128813981260F371F2E5F3F4F3183BE
:1038600020838A819B8193838283452B29F4F09363
:103870003704E093360442C01396FC93EE931297FC
:10388000ED01499159919E01240F351FE217F3076D
:1038900071F480819181840F951F029611969C93FB
:1038A0008E938281938113969C938E931297E0E07E
:1038B000F0E0D80112968D919C911397009719F022
:1038C000F8018C01F6CF8D919C9198012E5F3F4FAE
:1038D000820F931F20913404309135042817390743
:1038E00069F4309729F4109237041092360402C01C
:1038F000138212821093350400933404DF91CF9128
:103900001F910F910895A0E0B0E0E9E8FCE10C946C
:103910001A18EC01009721F4CB010E94561BB8C085
:10392000FC01E60FF71F9C0122503109E217F30753
:1039300008F4ACC0D9010D911C9111970617170717
:10394000B0F00530110508F49FC0C8010497861730
:10395000970708F499C002501109061B170B019331
:1039600011936D937C93CF010E94EB1B8DC05B0183
:10397000A01AB10A4C01800E911EA0913604B0919C
:10398000370440E050E0E12CF12C109709F44AC0D4
:10399000A815B905D1F56D907C901197630182E06F
:1039A000C80ED11CCA14DB0480F1A3014A195B09BB
:1039B0006A0182E0C80ED11C1296BC901297139631
:1039C000AC91B5E0CB16D10440F0B282A383518311
:1039D0004083D9016D937C930AC00E5F1F4FC301D2
:1039E000800F911FF90191838083EB2DFA2FE11451
:1039F000F10431F0D7011396FC93EE93129744C073
:103A0000F0933704E09336043FC08D919C91119759
:103A10004817590708F4AC017D0112960D90BC912E
:103A2000A02DB3CF80913404909135048815990569
:103A3000E1F446175707C8F48091040190910501FD
:103A4000009741F48DB79EB740910801509109014C
:103A5000841B950BE817F907C8F4F0933504E0933D
:103A60003404F901718360830FC0CB010E94561B9F
:103A70007C01009759F0A801BE010E94521DCE01A1
:103A80000E94EB1BC70104C0CE0102C080E090E0A1
:103A9000CDB7DEB7EEE00C94361881E090E0F894F4
:103AA0000C946B1DFB01DC0102C001900D92415092
:103AB0005040D8F70895FB01DC018D9101908019E9
:103AC0000110D9F3990B0895FB01DC0101900D92CF
:103AD0000020E1F7089510E0C6E8D0E004C0FE0140
:103AE0000E94FA192196C738D107C9F7F894FFCF79
:103AF000A201A20100003804800014039701D00144
:103B000053005C004100B9007E002001F5007A02FC
:103B10005B02B3033E037903C20214039701D00191
:103B200053005C004100B9007E002001F5007A02DC
:103B30005B02B3033E037903C202000000000A01E6
:103B4000BC0DD300B100C5005101000000003102DE
:103B50000102F901E501D601D5014E004E4E4F009C
:103B60004F4E4F004F534F0053534F00530053538A
:103B7000570057535700574E57004E4E57004E4F61
:103B80005F444952006E756D44726F707352616983
:103B90006E47617567653A200074696D65207369C9
:103BA0006E6365206C6173742063616C635261693C
:103BB0006E46616C6C2829203A200043414C4355E5
:103BC0004C415445442048494748455354204755A3
:103BD00053542057495448205354414E4441524471
:103BE00020444556494154494F4E203A20000D0A81
:103BF000005265736574696E67004E4343004E4F13
:103C000020424D453238302053454E534F522046C6
:103C10004F554E44004E4F204552524F52006E6158
:0A3C20006E00696E66006F766600A4
:107E0000112484B714BE81FFF0D085E080938100F7
:107E100082E08093C00088E18093C10086E0809377
:107E2000C20080E18093C4008EE0C9D0259A86E02C
:107E300020E33CEF91E0309385002093840096BBD3
:107E4000B09BFECF1D9AA8958150A9F7CC24DD24C4
:107E500088248394B5E0AB2EA1E19A2EF3E0BF2EE7
:107E6000A2D0813461F49FD0082FAFD0023811F036
:107E7000013811F484E001C083E08DD089C08234E0
:107E800011F484E103C0853419F485E0A6D080C0E4
:107E9000853579F488D0E82EFF2485D0082F10E0AE
:107EA000102F00270E291F29000F111F8ED06801E7
:107EB0006FC0863521F484E090D080E0DECF843638
:107EC00009F040C070D06FD0082F6DD080E0C81688
:107ED00080E7D80618F4F601B7BEE895C0E0D1E017
:107EE00062D089930C17E1F7F0E0CF16F0E7DF06D8
:107EF00018F0F601B7BEE89568D007B600FCFDCFD4
:107F0000A601A0E0B1E02C9130E011968C91119780
:107F100090E0982F8827822B932B1296FA010C0160
:107F200087BEE89511244E5F5F4FF1E0A038BF0790
:107F300051F7F601A7BEE89507B600FCFDCF97BE46
:107F4000E89526C08437B1F42ED02DD0F82E2BD052
:107F50003CD0F601EF2C8F010F5F1F4F84911BD097
:107F6000EA94F801C1F70894C11CD11CFA94CF0C13
:107F7000D11C0EC0853739F428D08EE10CD085E9AC
:107F80000AD08FE07ACF813511F488E018D01DD067
:107F900080E101D065CF982F8091C00085FFFCCF94
:107FA0009093C60008958091C00087FFFCCF809118
:107FB000C00084FD01C0A8958091C6000895E0E648
:107FC000F0E098E1908380830895EDDF803219F02E
:107FD00088E0F5DFFFCF84E1DECF1F93182FE3DFCA
:107FE0001150E9F7F2DF1F91089580E0E8DFEE27F6
:047FF000FF270994CA
:027FFE00040479
:0400000300007E007B
:00000001FF