:100000000C9463000C940E0B0C94E70A0C94390BBF
:100010000C94390B0C94390B0C948B000C948B00C2
:100020000C948B000C948B000C948B000C948B0024
:100030000C948B000C948B000C948B000C948B0014
:100040000C949D0A0C948B000C944B090C9425097C
:100050000C948B000C948B000C948B000C948B00F4
:100060000C94430B0C948B0000000000240027002C
:100070002A000000000023002600290004040404D4
:100080000404040402020202020203030303030342
:10009000010204081020408001020408102001021F
:1000A00004081020000000080002010000030407FB
:1000B00000000000000000000000000025002800F3
:1000C0002B000C16551611241FBECFEFD8E0DEBF53
:1000D000CDBF23E0AEEAB1E001C01D92A53AB20760
:1000E000E1F711E0A0E0B1E0E4EDF9E302C0059032
:1000F0000D92AE3AB107D9F710E0C2E6D0E004C0E5
:100100002197FE010E94C21AC136D107C9F70E9489
:10011000E80D0C94DD1C0C940000209120029091BD
:100120004A03213208F04AC0809147028111FCCF76
:1001300032E03093470231E0309346023FEF309394
:1001400045021092440220934302A0E0B2E041E253
:1001500052E0FA013E2F341B321718F43D913193CF
:10016000F9CF1092420220914202990F922B909364
:10017000420290914102913061F4109241029091BB
:1001800042029093BB009091BC0093FDF8CF95EC98
:1001900001C095EE9093BC00909147029230E1F33C
:1001A000909145029F3F79F080914502803241F065
:1001B00080914502803331F084E005C081E003C0C6
:1001C00082E001C083E01092FF01109220021092A1
:1001D000FE010895909147029111FCCF613208F021
:1001E00060E291E090934702909346022FEF2093B4
:1001F000450210924402260F20934302909342023C
:1002000090914202880F892B809342028091410293
:10021000813061F410924102809142028093BB00D0
:100220008091BC0083FDF8CF85EC01C085EE809302
:10023000BC00809147028130E1F38091440286172F
:1002400010F460914402A1E2B2E02AE432E0F90144
:100250008E2F821B861718F48D918193F9CF1092FF
:10026000490260934802862F0895CF92DF92EF9261
:10027000FF920F931F93CF93DF9390911F039F3FA4
:1002800039F48EBD00000DB407FEFDCF8EB544C01D
:10029000E82EC7E0D0E0D12C01E010E0DD0C60E0FA
:1002A00080911F030E94A609B8010C2E01C0660FA1
:1002B0000A94EAF76E2180911D030E94A60961E06D
:1002C00080911F030E94A60920911E0330E0F901CE
:1002D000EC55FF4F8491F901E057FF4FC490F901AD
:1002E000E458FF4FF490FF2071F081110E947D09C6
:1002F000EF2DF0E0EE0FFF1FEE58FF4FA591B491E8
:10030000EC91EC2129F4219708F0C8CF8D2D04C081
:100310008D2D8160D82EF7CFDF91CF911F910F9156
:10032000FF90EF90DF90CF900895CF92DF92EF9201
:10033000FF92CF93C82F80911C038F3F09F040C0DC
:100340008091130391E09093FE0180934A031092F1
:10035000FF01109220026C2F87E093E00E94EA08D0
:100360000E948D0063E0809113030E94EA0087E001
:1003700093E00E949E086C01990FEE08FF08FE2C86
:10038000ED2CDC2CCC2487E093E00E949E08AC018D
:10039000990F660B770BC42AD52AE62AF72AFE2C7A
:1003A000ED2CDC2CCC2487E093E00E949E08AC016D
:1003B000990F660B770BC42AD52AE62AF72A33C091
:1003C00080911F038F3F21F482E591E00E94360B5C
:1003D00060E080911C030E94A6098C2F80680E9417
:1003E000350180E00E943501C82ED12CE12CF12C82
:1003F000FE2CED2CDC2CCC2480E00E943501C82A98
:10040000FE2CED2CDC2CCC2480E00E943501C82A87
:1004100061E080911C030E94A60980911F038F3F19
:1004200011F40E94350BC701B601CF91FF90EF90F8
:10043000DF90CF900895CF93DF93C82F80911C0356
:100440008F3F39F58091130391E09093FE018093E3
:100450004A031092FF01109220026C2F87E093E074
:100460000E94EA080E948D0062E0809113030E94BE
:10047000EA0087E093E00E949E08C82F87E093E09F
:100480000E949E0820E030E03C2FE901C82BD92BC8
:1004900029C080911F038F3F21F482E591E00E94E3
:1004A000360B60E080911C030E94A6098C2F8068A7
:1004B0000E94350180E00E943501C82F80E00E9433
:1004C00035012C2F30E0322F2227E901C82B61E0C3
:1004D00080911C030E94A60980911F038F3F11F495
:1004E0000E94350BCE01DF91CF9108958F929F929C
:1004F000AF92BF92CF92DF92EF92FF928AEF0E946B
:1005000095016115710520E88207910509F47CC009
:1005100040912003509121034A01A12CB12CC72EF8
:10052000D82EE92EFF24E7FCFA94C818D908EA0867
:10053000FB08DC01CB0137E0B595A795979587952A
:100540003A95D1F7B501A401440F551F661F771FD7
:100550004C015D01841A950AA60AB70AA501940107
:10056000A0912203B09123030E946C194B015C01FE
:10057000FBE0B594A79497948794FA95D1F7A701D7
:100580009601C701B6010E943A199B01AC01ACE08B
:100590005595479537952795AA95D1F7A0912403AE
:1005A000B09125030E946C19DC01CB012EE0B595BA
:1005B000A795979587952A95D1F7A5019401280FBE
:1005C000391F4A1F5B1F2093180330931903409370
:1005D0001A0350931B03A5E0B0E00E947D17DC01D5
:1005E000CB0180589F4FAF4FBF4F692F7A2F8B2F72
:1005F000992787FD9A950E94601620E030E048EC2C
:1006000052E40E943B1804C060E070E080EC9FE779
:10061000FF90EF90DF90CF90BF90AF909F908F9022
:1006200008954F925F926F927F928F929F92AF92B6
:10063000BF92CF92DF92EF92FF920E9476028DEFEF
:100640000E941B02A0E0B0E0811520E89207A105FE
:10065000B10509F4DBC08090180390901903A090B5
:100660001A03B0901B033CE2931A31E0A30AB108CD
:100670003EE0880F991FAA1FBB1F3A95D1F7409102
:100680003C0350913D03052E000C660B770BE4E113
:10069000440F551F661F771FEA95D1F76C017D0146
:1006A000C41AD50AE60AF70AA0913E03B0913F03A7
:1006B000A50194010E946C19C61AD70AE80AF90A22
:1006C00040E4D40EE11CF11CFFE0F594E794D794CC
:1006D000C794FA95D1F7A09140030A2E000CBB0BEA
:1006E000A50194010E946C192B013C01AAE07594AC
:1006F000679457944794AA95D1F7A0913B03B0E033
:100700000E947D17DC01CB012BE0B595A79597954D
:1007100087952A95D1F7BC01CD0170588F4F9F4F17
:10072000A30192010E943A19DC01CB013AE0B59590
:10073000A795979587953A95D1F79C01AD01405EB5
:100740005F4FA0913903B0913A030E946C19DC010C
:10075000CB01905EAF4FBF4FBC01CD014EE09595F0
:100760008795779567954A95D1F7A70196010E94DD
:100770003A196B017C015FE09595879577956795B0
:100780005A95D1F79B01AC010E943A199B01AC012B
:1007900067E055954795379527956A95D1F7A091CC
:1007A0003803B0E00E947D17DC01CB0174E0B59501
:1007B000A795979587957A95D1F7A7019601281B5C
:1007C000390B4A0B5B0BDA01C90157FF03C080E00C
:1007D00090E0DC0181309105A10539E1B30724F0F7
:1007E00080E090E0A0E0B9E1BC01CD012CE095955E
:1007F0008795779567952A95D1F70E94601620E036
:1008000030E040E85AE30E94BF1604C060E070E0A8
:1008100080EC9FE7FF90EF90DF90CF90BF90AF907C
:100820009F908F907F906F905F904F9008952F9240
:100830003F924F925F926F927F928F929F92AF9270
:10084000BF92CF92DF92EF92FF920F931F93CF93BD
:10085000DF93CDB7DEB7A2970FB6F894DEBF0FBE19
:10086000CDBF0E94760287EF0E9495016F83788743
:1008700089879A87611571058048910509F4FDC142
:100880008091180390911903A0911A03B0911B0352
:100890006C017D01FF0CCC08DC2C76019C01AD01C4
:1008A0006C2D7C2D8C2D9C2D345F414051096109AC
:1008B0007109810991092AA339A349835A836B835A
:1008C0007C838D839E8359016A017B018C010E9488
:1008D00074192E8B3F8B488F598F6A8F7B8F8C8F2B
:1008E0009D8F809130038E8F909131039B87A091D3
:1008F0002E03AF8FB0912F03BC87E0912C03E8A3A8
:10090000F0912D03FD87B0902903A09028031B2DA3
:10091000110F110BC12ED12EE12EF12E012F2AA184
:1009200039A149815A816B817C818D819E810E9490
:1009300074190CE00E946D1A19012A013B014C0147
:10094000B0902B03A0902A031B2D110F110BC12E69
:10095000D12EE12EF12E012F2E893F89488D598D00
:100960006A8D7B8D8C8D9D8D0E94741908E00E948C
:10097000861A51016201730184010E94A41A705801
:100980008F4F9F4F20902603309027035101C12C99
:10099000D12CE12CF12C00E010E00E94741901E24E
:1009A0000E94861A2E873F87488B598B6A8B7B8BD8
:1009B0008C8B9D8BA0E00E94B61A09F463C1AE8CAB
:1009C0001B85110F110BBB84C12ED12EE12EF12EF0
:1009D000012F2E893F89488D598D6A8D7B8D8C8D95
:1009E0009D8D0E94741919012A013B014C01AF8CA5
:1009F0001C85110F110BBC84C12ED12EE12EF12EBE
:100A0000012F2AA139A149815A816B817C818D8175
:100A10009E810E94741901E10E946D1A59016A01B8
:100A20007B018C019101A201B301C4010E94A41AAF
:100A300019012A013B014C014F81588569857A854E
:100A400084E075956795579547958A95D1F780E02D
:100A500090E0A0E1B0E0841B950BA60BB70B6C01F6
:100A60007D01FF0CCC08DC2C76019C01AD016C2DC6
:100A70007C2D8C2D9C2D0FE10E946D1AF901B42F55
:100A8000A52F6C837D8389839A8328A19D85990FE7
:100A9000990B3D85492F592F692F792F892F03E213
:100AA0000E946D1A59016A017B018C019101A2011A
:100AB000B301C4010E94A41A59016A017B018C018F
:100AC0009F014B2F5A2F6C817D8189819A810E94D1
:100AD000AD1A4901542E652EB62FA72FF82FE92FF6
:100AE00003E00E946D1A5401C52CD62CEB2EFA2E71
:100AF0000F2F1E2F0E94AD1A59016A017B01782E1B
:100B0000192F03E00E946D1A072D0E94AD1A03E011
:100B10000E946D1A5401C52CD62CEB2EFA2E0F2FE5
:100B20001E2F0E94AD1A02E00E946D1A0F2F0E9424
:100B3000AD1A01E00E946D1A0F2F0E94AD1AAE840B
:100B4000BF84C888D988EA88FB880C891D890E94DF
:100B5000CF192B873F8349835A836B837C838D8393
:100B60009E830DE00E94861A922E832E742E652E8F
:100B7000562E472E382E292E3091370320913603DA
:100B8000932F990F990BA92CB82CC72CD62CE52C98
:100B9000F42C032D122D492F592F692F792F892FCE
:100BA0000E9474190E94741909E10E94861A590161
:100BB0006A017B018C012B853F8149815A816B81C0
:100BC0007C818D819E810E94A41A19012A013B011A
:100BD0004C013091350320913403932F990F990BD9
:100BE000AB84BF80C980DA80EB80FC800D811E81E0
:100BF000492F592F692F792F892F0E94741903E1EA
:100C00000E94861A59016A017B018C019101A2019F
:100C1000B301C4010E94A41A08E00E94861A522E51
:100C2000632E742E852E962EF72FE82FB92F309134
:100C3000330320913203932F990F990B492F592F8A
:100C4000692F792F892F04E00E946D1A59016A01DA
:100C50007B018C01252D362D472D582D692D7F2F99
:100C60008E2F9B2F0E94A41A0E94DC1820E030E0F7
:100C700040E85BE30E94BF1608C060E070E080ECD3
:100C80009FE703C060E070E0CB01A2960FB6F89436
:100C9000DEBF0FBECDBFDF91CF911F910F91FF90AF
:100CA000EF90DF90CF90BF90AF909F908F907F900C
:100CB0006F905F904F903F902F90089580E48093C5
:100CC0007C0080917A00806480937A0080917A0021
:100CD00086FDFCCF809178002091790090E0922BE6
:100CE0000895CF93DF93D82FC62F80911C038F3F99
:100CF000C9F48091130391E09093FE0180934A031D
:100D00001092FF01109220026D2F87E093E00E9465
:100D1000EA086C2F87E093E00E94EA08DF91CF9108
:100D20000C948D0080911F038F3F21F482E591E0A8
:100D30000E94360B60E080911C030E94A6098D2F53
:100D40008F770E9435018C2F0E94350161E08091E0
:100D50001C030E94A60980911F038F3F21F4DF919D
:100D6000CF910C94350BDF91CF910895CF93C82F7D
:100D700080911C038F3FE9F48091130391E09093DD
:100D8000FE0180934A031092FF01109220026C2F03
:100D900087E093E00E94EA080E948D0061E0809164
:100DA00013030E94EA0087E093E00E949E08C82F88
:100DB00020C080911F038F3F21F482E591E00E94C3
:100DC000360B60E080911C030E94A6098C2F80687E
:100DD0000E94350180E00E943501C82F61E08091BA
:100DE0001C030E94A60980911F038F3F11F40E94EB
:100DF000350B8C2FCF9108950E941B0298278927CD
:100E000098270895009769F0FC0101900020E9F708
:100E10003197AF01481B590BBC018AE692E00C9454
:100E2000720C80E090E008958F929F92AF92BF92F3
:100E30000F931F93CF93DF93CDB7DEB7A1970FB674
:100E4000F894DEBF0FBECDBF19A2423008F44AE0CD
:100E50008E010F5D1F4F842E912CA12CB12CA5016A
:100E600094010E944A19E62FB901CA0101501109E3
:100E7000EA3014F4E05D01C0E95CD801EC93232B67
:100E8000242B252B61F7C8010E940207A1960FB6FB
:100E9000F894DEBF0FBECDBFDF91CF911F910F91B0
:100EA000BF90AF909F908F900895CF93DF93FC01F8
:100EB00044815581608171818AE692E00E94720CC2
:100EC000EC0185E791E00E9402078C0F9D1FDF91E6
:100ED000CF910895FC01918D828D981761F0828DDC
:100EE000DF01A80FB11D5D968C91928D9F5F9F735E
:100EF000928F90E008958FEF9FEF0895FC01918D00
:100F0000828D981731F0828DE80FF11D858D90E06C
:100F100008958FEF9FEF0895FC01918D228D892F09
:100F200090E0805C9F4F821B91098F7399270895F1
:100F30008AE692E00E948C0721E0892B09F420E0E8
:100F4000822F0895FC01848DDF01A80FB11DA35AE3
:100F5000BF4F2C91848D90E001968F739927848FD9
:100F6000A689B7892C93A089B1898C9180648C93D0
:100F7000938D848D981306C00288F389E02D8081BB
:100F80008F7D80830895EF92FF920F931F93CF93ED
:100F9000DF93EC0181E0888F9B8D8C8D981305C0C9
:100FA000E889F989808185FD24C0F62E0B8D10E03B
:100FB0000F5F1F4F0F731127E02E8C8DE8120CC0AE
:100FC0000FB607FCFACFE889F989808185FFF5CF54
:100FD000CE010E94A207F1CF8B8DFE01E80FF11D1B
:100FE000E35AFF4FF0820B8FEA89FB898081806290
:100FF00007C0EE89FF896083E889F9898081806470
:10100000808381E090E0DF91CF911F910F91FF905D
:10101000EF900895CF93DF93EC01888D8823C9F07A
:10102000EA89FB89808185FD05C0A889B9898C91F1
:1010300086FD0FC00FB607FCF5CF808185FFF2CF8C
:10104000A889B9898C9185FFEDCFCE010E94A207B6
:10105000E7CFDF91CF91089580E090E0892B29F0D0
:101060000E94980781110C94000008953FB7F894EE
:1010700080919D0390919E03A0919F03B091A00346
:1010800026B5A89B05C02F3F19F00196A11DB11DE3
:101090003FBFBA2FA92F982F8827820F911DA11D1E
:1010A000B11DBC01CD0142E0660F771F881F991F5B
:1010B0004A95D1F70895089585ED8093BC008091FD
:1010C000BC0084FDFCCF109247020895409171034B
:1010D000262F30E0240F311D21323105DCF4209120
:1010E00047022430C9F4FC0180E090E0861758F4F0
:1010F000309171032191DC01A15BBC4FA30FB11DA5
:101100002C930196F3CF80917103680F6093710364
:1011100080E0089581E0089582E008950895E091C7
:10112000490280914802E81730F4F0E0E65BFD4F99
:10113000808190E008958FEF9FEF0895909149028C
:1011400080914802981750F4E92FF0E0E65BFD4FDC
:10115000208130E09F5F9093490202C02FEF3FEF64
:10116000C90108958091480290E020914902821BB4
:1011700091090895CF92DF92EF92FF920F931F9300
:10118000CF93DF937C01262F972F8A018091FE0158
:10119000882391F0C62FD72F6E01C40ED51ECC1513
:1011A000DD0571F06991D701ED91FC910190F0811D
:1011B000E02DC7010995F3CF642F822F0E946608A6
:1011C000C801DF91CF911F910F91FF90EF90DF90B9
:1011D000CF900895CF93DF931F92CDB7DEB7698389
:1011E0002091FE012223D1F020912002203240F0F4
:1011F00021E030E0FC013383228380E090E015C0E1
:101200008091FF01E82FF0E0E050FE4F998190833C
:101210008F5F8093FF018093200205C061E0CE01C3
:1012200001960E94660881E090E00F90DF91CF91D7
:1012300008958091B0019091B10101969093B10110
:101240008093B00108950E94BF1C1F920F920FB6A9
:101250000F9211242F933F934F935F936F937F933C
:101260008F939F93AF93BF93EF93FF938AE692E0A0
:101270000E94A207FF91EF91BF91AF919F918F9133
:101280007F916F915F914F913F912F910F900FBE82
:101290000F901F9018951F920F920FB60F92112466
:1012A0002F938F939F93EF93FF93E0917A02F091A6
:1012B0007B028081E0918002F091810282FD12C068
:1012C0009081809183028F5F8F73209184028217B7
:1012D00051F0E0918302F0E0E659FD4F958F809345
:1012E000830201C08081FF91EF919F918F912F9197
:1012F0000F900FBE0F901F901895833081F028F447
:10130000813099F08230A1F008958730A9F08830BB
:10131000B9F08430D1F4809180008F7D03C080913A
:1013200080008F7780938000089584B58F7702C006
:1013300084B58F7D84BD08958091B0008F7703C000
:101340008091B0008F7D8093B00008951F93CF935C
:10135000DF93282F30E0F901EC55FF4F8491F9011C
:10136000E057FF4FD491F901E458FF4FC491CC23CB
:10137000C9F0162F81110E947D09EC2FF0E0EE0FCD
:10138000FF1FE854FF4FA591B4918FB7F894111146
:1013900005C09C91ED2FE095E92302C0EC91ED2B67
:1013A000EC938FBFDF91CF911F910895CF93DF937F
:1013B00090E0FC01E057FF4F2491FC01E458FF4FFF
:1013C0008491882361F190E0880F991FFC01E8590E
:1013D000FF4FC591D491FC01E854FF4FA591B49102
:1013E000611109C09FB7F894888120958223888372
:1013F000EC912E230BC0623061F49FB7F8943881D2
:10140000822F809583238883EC912E2B2C939FBF72
:1014100006C08FB7F894E8812E2B28838FBFDF9109
:10142000CF9108958F929F92AF92BF92CF92DF9209
:10143000EF92FF926B017C010E9436084B015C0128
:10144000C114D104E104F104F1F00E943608DC017A
:10145000CB0188199909AA09BB09883E9340A105C7
:10146000B10570F321E0C21AD108E108F10888EE55
:10147000880E83E0981EA11CB11CC114D104E104A4
:10148000F10419F7DDCFFF90EF90DF90CF90BF9080
:10149000AF909F908F9008952FB7F8946091990323
:1014A00070919A0380919B0390919C032FBF0895A4
:1014B000CF92DF92EF92FF9280914B0390914C0379
:1014C000A0914D03B0914E03892B8A2B8B2B79F081
:1014D000C0904B03D0904C03E0904D03F0904E032E
:1014E0000E944C0AC616D706E806F90608F5809150
:1014F000AE019091AF0101969093AF018093AE0140
:101500008091B2019091B30101969093B3018093C1
:10151000B2010E944C0ADC01CB014496A11DB11D11
:1015200080934B0390934C03A0934D03B0934E03D1
:10153000FF90EF90DF90CF9008951F920F920FB61B
:101540000F9211242F933F938F939F93AF93BF9349
:101550008091990390919A03A0919B03B0919C0371
:101560003091980323E0230F2D3720F40196A11D1D
:10157000B11D05C026E8230F0296A11DB11D2093C1
:1015800098038093990390939A03A0939B03B0933D
:101590009C0380919D0390919E03A0919F03B09125
:1015A000A0030196A11DB11D80939D0390939E03FE
:1015B000A0939F03B093A003BF91AF919F918F9190
:1015C0003F912F910F900FBE0F901F9018951F9273
:1015D0000F920FB60F9211242F933F934F935F9367
:1015E0006F937F938F939F93AF93BF93EF93FF93EB
:1015F000E0910201F09103010995FF91EF91BF91F4
:10160000AF919F918F917F916F915F914F913F919A
:101610002F910F900FBE0F901F9018951F920F9251
:101620000FB60F9211242F933F934F935F936F93B5
:101630007F938F939F93AF93BF93EF93FF93E0912B
:101640000001F09101010995FF91EF91BF91AF91D8
:101650009F918F917F916F915F914F913F912F91CA
:101660000F900FBE0F901F90189508958CBD9DBDD3
:1016700008951F920F920FB60F9211240F900FBE74
:101680000F901F9018951F920F920FB60F92112472
:101690002F933F934F935F936F937F938F939F937A
:1016A000AF93BF93EF93FF938091B900887F80360B
:1016B00009F49CC068F5883209F45BC090F480316D
:1016C00009F454C038F4882309F4F6C0883009F4CA
:1016D0004DC0F6C0883109F44CC0803209F45DC0B9
:1016E000EFC0803409F468C048F4803309F455C071
:1016F000883309F0E5C080934502D8C0803509F4ED
:101700004FC0883509F45DC0883409F0D9C0D6C00F
:10171000883909F4C7C0A8F4883709F467C038F4D9
:10172000883609F463C0803709F460C0C9C08838BE
:1017300009F4B8C0803909F45FC0803809F0C0C02E
:101740005BC0803B09F486C038F4803A09F466C077
:10175000883A09F47FC0B4C0803C09F4A7C0883C33
:1017600009F4A4C0883B09F48AC0AAC0809142024F
:1017700010C09091440280914302981770F5E09157
:10178000440281E08E0F80934402F0E0EF5DFD4F54
:1017900080818093BB0085EC86C0809345028EC01B
:1017A000E091440281E08E0F809344028091BB005F
:1017B000F0E0EF5DFD4F8083909144028091430201
:1017C0006EC0E091440281E08E0F809344028091CC
:1017D000BB00F0E0EF5DFD4F8083809146028111F8
:1017E0006DC081E08093410284EA61C083E0809310
:1017F000470210929503CFCF80919503803208F075
:1018000051C0E091950381E08E0F80939503809104
:10181000BB00F0E0EB58FC4F8083BDCF85EC80939C
:10182000BC001092470280919503803230F4E09121
:101830009503F0E0EB58FC4F10826091950370E047
:10184000E0917303F091740385E793E0099510929A
:10185000950336C084E08093470210927203109281
:101860007103E0916F03F09170030995809171030A
:10187000811105C081E08093710310924F03E091C4
:10188000720381E08E0F80937203F0E0E15BFC4F06
:1018900080818093BB0090917203809171039817AF
:1018A00008F479CF85E88093BC000AC085EC80936A
:1018B000BC001092470204C0109245020E945C08CE
:1018C000FF91EF91BF91AF919F918F917F916F9118
:1018D0005F914F913F912F910F900FBE0F901F90EE
:1018E00018950895CF92DF92EF92FF920F931F9376
:1018F000CF93DF936C017A018B01C0E0D0E0CE156D
:10190000DF0589F0D8016D918D01D601ED91FC9133
:101910000190F081E02DC6010995892B11F47E011B
:1019200002C02196ECCFC701DF91CF911F910F919B
:10193000FF90EF90DF90CF9008954F925F926F925B
:101940007F928F929F92AF92BF92CF92DF92EF924F
:10195000FF926B017C019B01AC010E943519882329
:1019600019F082EA91E01AC046015701E894B7F8ED
:101970002FEF3FEF4FE75FE7C501B4010E94351934
:10198000811110C02FEF3FEF4FE75FE7C501B401B2
:101990000E945916181634F486EA91E00E94020754
:1019A0007C018FC02FEF3FEF4FE75FE4C701B60127
:1019B0000E94301918161CF48AEA91E0EFCF2FEF3D
:1019C0003FEF4FE75FECC701B6010E94591687FD54
:1019D000F3CF20E030E0A901C701B6010E945916FB
:1019E00087FF11C0E0916A02F0916B020190F081D3
:1019F000E02D6DE28AE692E009955C01F7FAF09439
:101A0000F7F8F09402C0A12CB12C2AE037ED43EA9C
:101A10005BE3C701B6010E94CF172B013C010E9476
:101A2000AD186B017C010E945E169B01AC01C301E5
:101A3000B2010E94CE172B013C014AE0C701B6015A
:101A40000E9414077C01EA0CFB1CE0916A02F091F1
:101A50006B020190F081E02D6EE28AE692E009953A
:101A6000E80EF91E20E030E040E251E4C301B2018B
:101A70000E94BF162B013C010E94AD184B01A12C06
:101A8000B12C4AE0C501B4010E941407E80EF91E0A
:101A9000C501B4010E945E169B01AC01C301B201F5
:101AA0000E94CE1720E030E040E251E40E94BF16D1
:101AB0000E94AD1880E090E04AE00E941407E80E12
:101AC000F91E85E791E00E9402078E0D9F1DFF9091
:101AD000EF90DF90CF90BF90AF909F908F907F90CE
:101AE0006F905F904F900895EF92FF920F931F9326
:101AF000CF93DF93EC017B018A0188819981009764
:101B000029F02A813B8124173507F8F4B8016F5F6B
:101B10007F4F0E94F51B009759F0998388831B83A0
:101B20000A832C813D81232B81F4FC0110820DC09E
:101B300088819981009711F00E945D1B198218829B
:101B40001D821C821B821A8207C01D830C83B70171
:101B5000888199810E94D61CCE01DF91CF911F917F
:101B60000F91FF90EF900895FC01808191810C947A
:101B70005D1BFB01DC0111961C921E9213961C92B8
:101B80001E92129715961C921E921497861797070D
:101B900049F0608171816115710521F044815581A1
:101BA0000C94740D0895FC0111821082138212822C
:101BB000158214826115710551F0FB01019000201E
:101BC000E9F73197AF01461B570B0C94740D08953C
:101BD000CF93DF93CDB7DEB7C059D1090FB6F894D4
:101BE000DEBF0FBECDBF789484B5826084BD84B55E
:101BF000816084BD85B5826085BD85B5816085BD08
:101C000080916E00816080936E00109281008091BF
:101C10008100826080938100809181008160809347
:101C20008100809180008160809380008091B1006C
:101C300084608093B1008091B00081608093B00097
:101C400080917A00846080937A0080917A0082602B
:101C500080937A0080917A00816080937A008091ED
:101C60007A00806880937A001092C100E0917A0235
:101C7000F0917B0282E08083E0917602F09177021E
:101C80001082E0917802F09179028FEC80831092BB
:101C90008202E0917E02F0917F0286E08083E091F3
:101CA0007C02F0917D02808180618083E0917C02E2
:101CB000F0917D02808188608083E0917C02F091C8
:101CC0007D02808180688083E0917C02F0917D02BA
:101CD00080818F7D808360E082E00E94D60960E091
:101CE00083E00E94D60961E08DE00E94D60961E0A0
:101CF00082E00E94A60961E083E00E94A60988E5CF
:101D00009AE09093010180930001809169008C7F9B
:101D1000826080936900E89A89E199E090930301D9
:101D20008093020180916900837F886080936900BD
:101D3000E99A0E944C0A6093B9017093BA018093AA
:101D4000BB019093BC010E944C0A6093B501709353
:101D5000B6018093B7019093B80187E7809313038E
:101D600080911C038F3F41F5109249021092480266
:101D70001092FF01109220021092470281E080939E
:101D800046021092410261E082E10E94A60961E0F0
:101D900083E10E94A6098091B9008E7F8093B900EB
:101DA0008091B9008D7F8093B90088E48093B8005A
:101DB00085E48093BC004EC061E00E94A60961E00A
:101DC00080911C030E94D60980911F038F3F09F068
:101DD00034C01FB7F8948091B401811127C0E6E8A0
:101DE000F0E08491EAE9F0E09491E82FF0E0EE0F62
:101DF000FF1FE859FF4FA591B491EC91E92321F41D
:101E000061E08AE00E94A60961E08AE00E94D609AA
:101E10008CB580618CBD8CB580648CBD61E08DE03B
:101E20000E94D60961E08BE00E94D6098091B4013E
:101E30008F5F8093B4011FBF0DC061E00E94D6097F
:101E400061E080911D030E94D60960E080911E032D
:101E50000E94D60980ED0E94B606803609F0ADC614
:101E600066EB80EE0E9471066CE271E080E090E02B
:101E70000E94120A83EF0E94B60680FF05C064E646
:101E800070E080E090E0F4CF88E80E94FC06909338
:101E90002103809320038AE80E94FC069093230389
:101EA000809322038CE80E94FC0690932503809384
:101EB00024038EE80E94FC06909327038093260358
:101EC00080E90E94FC06909329038093280382E90D
:101ED0000E94FC0690932B0380932A0384E90E94BE
:101EE000FC0690932D0380932C0386E90E94FC0648
:101EF00090932F0380932E0388E90E94FC06909311
:101F00003103809330038AE90E94FC0690933303E7
:101F1000809332038CE90E94FC06909335038093F2
:101F200034038EE90E94FC069093370380933603B6
:101F300081EA0E94B6068093380381EE0E94FC0677
:101F400090933A038093390383EE0E94B606809300
:101F50003B0384EE0E94B606182F85EE0E94B6065B
:101F6000282F2F7030E1139FC0011124822B9093F2
:101F70003D0380933C0386EE0E94B606182F85EE43
:101F80000E94B60690E034E0959587953A95E1F782
:101F900040E1149F90011124822B932B90933F03D7
:101FA00080933E0387EE0E94B606809340038DEE39
:101FB00080934203809143038F71806A809343032F
:101FC00080914103807C8093410365E082EF0E9411
:101FD000710690914103692F677050E2659F9001EF
:101FE0001124892F8695869586958770A8E08A9F0B
:101FF000B0011124622B732B97FB992790F9692B61
:1020000085EF0E94710690914203692F6770B0E2DC
:102010006B9F90011124892F8695869586958770F0
:1020200048E0849FB0011124622B732B9295969502
:1020300096959370692B84EF0E94710628EEC22E4C
:1020400023E0D22EE12CF12C8AE692E00E948C074C
:10205000181619060CF0EAC38AE692E00E946A0795
:102060008533910509F47CC20CF080C08233910560
:1020700009F4C0C024F4C19709F493C0CFC38333DB
:10208000910509F4E6C0C49709F0C8C36AE471E099
:102090008E010F5F1F4FC8010E94D30D6CE471E0E9
:1020A000CE0107960E94D30D6DE471E0CE010D962E
:1020B0000E94D30D60E571E0CE0143960E94D30DDE
:1020C0006EE471E0CE0149960E94D30D64E571E0A3
:1020D000CE014F960E94D30D65E571E0CE01859645
:1020E0000E94D30D68E571E0CE018B960E94D30D5E
:1020F0006CE571E0CE01C1960E94D30D6EE571E0F2
:10210000CE01C7960E94D30D6FE571E0CE01CD964A
:102110000E94D30D62E671E0CE018D5B9F4F0E945D
:10212000D30D6CE671E0CE01875B9F4F0E94D30D0B
:1021300066E671E0CE01815B9F4F0E94D30D6BE696
:1021400071E0CE018B5A9F4F0E94D30D6AE671E079
:10215000CE01855A9F4F0E94D30DE2ECF1E02FEFA4
:102160003FEF40E050E080E090E0A2C08534910570
:1021700009F434C344F48633910509F464C2C79763
:1021800009F4AEC24BC38235910509F434C38435DA
:10219000910509F043C30E944C0A4AE00E941407CB
:1021A00041C36091FC017091FD016115710519F445
:1021B0000E94110310C3072E000C880B990B0E947C
:1021C00060169B01AC016091F8017091F90180915A
:1021D000FA019091FB010E943B181092F8011092B5
:1021E000F9011092FA011092FB011092FD01109278
:1021F000FC01F1C26091F6017091F7016115710562
:1022000019F40E9417041EC0072E000C880B990BAE
:102210000E9460169B01AC016091F2017091F30184
:102220008091F4019091F5010E943B181092F20107
:102230001092F3011092F4011092F5011092F7013F
:102240001092F60120E030E048EC52E40E943B1886
:10225000C2C26091F0017091F1016115710519F42C
:102260000E947602B8C2072E000C880B990B0E94C0
:1022700060169B01AC016091EC017091ED018091C1
:10228000EE019091EF010E943B181092EC01109228
:10229000ED011092EE011092EF011092F1011092F7
:1022A000F00199C21192119201968031910541F08D
:1022B0006081718146175707ACF7AB019C01F2CFE3
:1022C0002F3F5FEF350761F46EE671E0CE0189576D
:1022D0009F4F0E94D30DCE018F599F4F5C010EC0BE
:1022E00086E0829FB001839F700D1124600F711FE3
:1022F000CE0189579F4F0E94B90DEDCF96E0A91AE4
:10230000B108C5010E94B40DA016B106B9F7C557B2
:10231000DF4F88819981CB58D040892B09F415C1B2
:102320006EE671E0C957DF4F88819981C758D04068
:102330000E94CD1C892B09F008C10E945E065C0139
:1023400080E2EAE0F1E0DE01AF59BF4F01900D926B
:102350008A95E1F76AE471E0C8010E94D30D6CE44C
:1023600071E0CE0107960E94D30D6DE471E0CE01BD
:102370000D960E94D30D60E571E0CE0143960E9458
:10238000D30D6EE471E0CE0149960E94D30D64E551
:1023900071E0CE014F960E94D30D65E571E0CE014C
:1023A00085960E94D30D68E571E0CE018B960E9460
:1023B000D30D6CE571E0CE01C1960E94D30D6EE5A0
:1023C00071E0CE01C7960E94D30D6FE571E0CE019A
:1023D000CD960E94D30D62E671E0CE018D5B9F4FDA
:1023E0000E94D30D6CE671E0CE01875B9F4F0E9487
:1023F000D30D66E671E0CE01815B9F4F0E94D30D45
:102400006BE671E0CE018B5A9F4F0E94D30D6AE6B6
:1024100071E0CE01855A9F4F0E94D30DFE01EF5906
:10242000FF4F20E030E041915191CA0104968A1596
:102430009B0534F044505109A416B5060CF0C6C3F0
:102440002F5F3F4F2031310571F76CE971E0CE010C
:102450008F579F4F0E94D30DDE01AF59BF4F5D01D3
:10246000B6E0AB1AB108C5010E94B40DA016B106C2
:10247000B9F7C957DF4F88819981C758D040009775
:1024800049F1CF57DF4F68817981C158D04061153C
:102490007105F1F0C757DF4F48815981C958D040C5
:1024A000CB57DF4F28813981C558D0404217530799
:1024B00078F00E94D61CCB57DF4F88819981C55890
:1024C000D040C557DF4F99838883CB58D04032C066
:1024D0000E945D1BCF57DF4F88819981C158D04042
:1024E000C957DF4F99838883C758D040CD57DF4FF6
:1024F00088819981C358D040C757DF4F998388831B
:10250000C958D040CB57DF4F88819981C558D040FA
:10251000C557DF4F99838883CB58D040CF57DF4FC3
:1025200019821882C158D040CD57DF4F19821882C6
:10253000C358D040CB57DF4F19821882C558D040BE
:10254000CE018F579F4F0E94B40DCE0189579F4FE8
:102550000E945507CE0189579F4F0E94B40D66C156
:102560006091AE017091AF01072E000C880B990BA2
:102570000E9460162CE43CEA49E150E40E94BF1638
:1025800026E636E646E650E40E943B184B015C0125
:102590000E944C0A0091B5011091B6012091B7013B
:1025A0003091B801601B710B820B930BA701960150
:1025B0000E944A19CA01B9010E945E1627E73CEC45
:1025C0004BE252E30E94CF179B01AC01C501B4015D
:1025D0000E943B184B015C011092AF011092AE01BA
:1025E0000E944C0A6093B5017093B6018093B701C5
:1025F0009093B80120E030E048EC52E4B401C5010A
:102600000E94301918166CF020E030E0A901B401E6
:10261000C5010E94591687FD04C0282D792DC501DA
:1026200004C020E070E080E89FEB822E972E5C01D2
:102630008092E8019092E901A092EA01B092EB0148
:10264000C501B401C8C08090E8019090E901A09054
:10265000EA01B090EB01A50194016091E401709151
:10266000E5018091E6019091E7010E94591687FFEC
:1026700016C02EEA37E441E65EE3C501B4010E94CC
:10268000BF169B01AC01C501B4010E94CF17609336
:10269000E4017093E5018093E6019093E701609176
:1026A000E4017091E5018091E6019091E7010E94BB
:1026B0009D0C1092E4011092E5011092E601109237
:1026C000E7011092B3011092B2010E944C0A60938C
:1026D000BE017093BF018093C0019093C101A6C059
:1026E0000091B0011091B1010E944C0A4B015C01B4
:1026F0002091B9013091BA014091BB015091BC01C8
:10270000C357DF4F288339834A835B83CD58D0403A
:10271000B801110F880B990B0E94601624E83DE068
:102720004FE85EE30E94BF1620E030E041E655E44A
:102730000E94BF162B013C01C501B401C357DF4FF6
:10274000288139814A815B81CD58D040621B730B4F
:10275000840B950BA70196010E944A19CA01B90181
:102760000E945E1627E73CEC4BE252E30E94CF1733
:102770009B01AC01C301B2010E943B184B015C01FB
:102780001092B1011092B0010E944C0A6093B901FD
:102790007093BA018093BB019093BC0120E030E0BC
:1027A00048EC52E4B401C5010E943019181664F0D7
:1027B00020E030E0A901B401C5010E94591687FD4F
:1027C00003C03A2D2B2D04C0812C912C30E82FEB27
:1027D000B401832F922F0E949D0C28C084E493E0C3
:1027E0000E94550740E050E067E771E084E493E021
:1027F0000E94740D1BC088E791E00E94020785E7E4
:1028000091E00E9402079FE088E10FB6F894A89536
:10281000809360000FBE90936000FFCF8EE791E041
:102820000E94020785E791E00E9402070E944C0A7D
:102830000091BE011091BF012091C0013091C101F2
:102840002B013C01401A510A620A730AC301B2010A
:1028500020E737E140E050E00E944A1965367105F3
:102860008105910508F071C08091BD0181116FC093
:1028700081E08093BD016091B2017091B301072E98
:10288000000C880B990B0E9460162CE43CEA49E18D
:1028900050E40E94BF1626E636E646E650E40E9463
:1028A0003B184B015C01C301B201A70196010E94D4
:1028B0004A19CA01B9010E945E1627E73CEC4BE2B7
:1028C00052E30E94CF179B01AC01C501B4010E94E5
:1028D0003B184B015C011092B3011092B20140927F
:1028E000BE015092BF016092C0017092C10120E010
:1028F00030E048EC52E40E94301918164CF020E009
:1029000030E0A901C501B4010E94591687FF06C035
:10291000812C912C90E8A92E9FEBB92E2091E401F7
:102920003091E5014091E6015091E701C501B40104
:102930000E94301918165CF48092E4019092E5012F
:10294000A092E601B092E70102C01092BD010E9480
:102950004C0A20E137E240E050E00E944A19653617
:1029600071058105910508F0ACC08091E2018111EB
:10297000AAC081E08093E2010E945E065C0180E2D1
:10298000EAE0F1E0DE01AF59BF4F01900D928A9568
:10299000E1F76AE471E08E010F5F1F4FC8010E94EA
:1029A000D30D6CE471E0CE0107960E94D30D6DE467
:1029B00071E0CE010D960E94D30D60E571E0CE016D
:1029C00043960E94D30D6EE471E0CE0149960E94B9
:1029D000D30D64E571E0CE014F960E94D30D65E5FD
:1029E00071E0CE0185960E94D30D68E571E0CE01BD
:1029F0008B960E94D30D6CE571E0CE01C1960E94CA
:102A0000D30D6EE571E0CE01C7960E94D30D6FE540
:102A100071E0CE01CD960E94D30D62E671E0CE0149
:102A20008D5B9F4F0E94D30D6CE671E0CE01875BFA
:102A30009F4F0E94D30D66E671E0CE01815B9F4FF0
:102A40000E94D30D6BE671E0CE018B5A9F4F0E941E
:102A5000D30D6AE671E0CE01855A9F4F0E94D30DD7
:102A6000FE01EF59FF4F20E030E041915191CA0142
:102A700004968A159B0534F044505109A416B506F6
:102A80000CF0B2C02F5F3F4F2031310571F76CE978
:102A900071E0CE018F579F4F0E94D30DAE014F5969
:102AA0005F4F5A0156E0A51AB108C5010E94B40D46
:102AB000A016B106B9F7CE018F579F4F0E94B40DF3
:102AC00002C01092E2010E944C0A20E23EE440E083
:102AD00050E00E944A19653671058105910508F09C
:102AE00065C08091E301811163C081E08093E301BF
:102AF0000E9411039B01AC016091F8017091F901F2
:102B00008091FA019091FB010E94CF176093F80128
:102B10007093F9018093FA019093FB018091FC017D
:102B20009091FD0101969093FD018093FC010E941C
:102B300017049B01AC016091F2017091F301809147
:102B4000F4019091F5010E94CF176093F201709308
:102B5000F3018093F4019093F5018091F601909137
:102B6000F70101969093F7018093F6010E94760297
:102B70009B01AC016091EC017091ED018091EE013F
:102B80009091EF010E94CF176093EC017093ED01DB
:102B90008093EE019093EF018091F0019091F1010B
:102BA00001969093F1018093F00102C01092E3012D
:102BB0000E944C0A0E942C0847CA46E150E062E895
:102BC00071E084E493E00E94740D38CA86E0829F2D
:102BD000B001839F700D1124600F711FCE018F57BC
:102BE0009F4F0E94B90D38CCF901EE0FFF1FEE5335
:102BF000FE4F8081918101969183808386E0829F40
:102C0000B001839F700D1124600F711FCE018F578B
:102C10009F4F0E94B90D42CFEAE6F2E01382128282
:102C200088EE93E0A0E0B0E084839583A683B78329
:102C30002EE231E03183208325EC30E03587248794
:102C400024EC30E03787268720EC30E0318B208B76
:102C500021EC30E0338B228B22EC30E0358B248B5F
:102C600026EC30E0378B268B118E128E138E148E4D
:102C7000E7E0F3E01382128284839583A683B7830F
:102C80008EE391E09183808369E971E084E493E0CD
:102C90000E94D30DE3E1F3E08AE081878BE0828735
:102CA0008CE083878DE08487089584E493E00C941E
:102CB000B40D0E949B1608F481E00895E89409C0C1
:102CC00097FB3EF490958095709561957F4F8F4F5F
:102CD0009F4F9923A9F0F92F96E9BB279395F69575
:102CE000879577956795B795F111F8CFFAF4BB0FF3
:102CF00011F460FF1BC06F5F7F4F8F4F9F4F16C057
:102D0000882311F096E911C0772321F09EE8872FE0
:102D1000762F05C0662371F096E8862F70E060E09C
:102D20002AF09A95660F771F881FDAF7880F969515
:102D3000879597F90895990F0008550FAA0BE0E8B9
:102D4000FEEF16161706E807F907C0F0121613066D
:102D5000E407F50798F0621B730B840B950B39F4AD
:102D60000A2661F0232B242B252B21F408950A2613
:102D700009F4A140A6958FEF811D811D08950E9441
:102D8000D2160C9443170E94351738F00E943C1756
:102D900020F0952311F00C942C170C943217112469
:102DA0000C9477170E94541770F3959FC1F3950FF9
:102DB00050E0551F629FF001729FBB27F00DB11DBF
:102DC000639FAA27F00DB11DAA1F649F6627B00D4F
:102DD000A11D661F829F2227B00DA11D621F739F38
:102DE000B00DA11D621F839FA00D611D221F749F46
:102DF0003327A00D611D231F849F600D211D822F8D
:102E0000762F6A2F11249F5750409AF0F1F08823B3
:102E10004AF0EE0FFF1FBB1F661F771F881F9150E0
:102E20005040A9F79E3F510580F00C942C170C944C
:102E300077175F3FE4F3983ED4F3869577956795CF
:102E4000B795F795E7959F5FC1F7FE2B880F911D0A
:102E50009695879597F9089597F99F6780E870E0B0
:102E600060E008959FEF80EC089500240A94161600
:102E7000170618060906089500240A941216130668
:102E8000140605060895092E0394000C11F48823F6
:102E900052F0BB0F40F4BF2B11F460FF04C06F5F12
:102EA0007F4F8F4F9F4F089557FD9058440F551FE8
:102EB00059F05F3F71F04795880F97FB991F61F0BC
:102EC0009F3F79F087950895121613061406551F33
:102ED000F2CF4695F1DF08C0161617061806991F9F
:102EE000F1CF86957105610508940895E894BB2794
:102EF00066277727CB0197F908950E94BF17A59FF2
:102F0000900DB49F900DA49F800D911D11240895E4
:102F10002F923F924F925F926F927F928F929F92E9
:102F2000AF92BF92CF92DF92EF92FF920F931F93D7
:102F3000CF93DF93CDB7DEB7CA1BDB0B0FB6F89488
:102F4000DEBF0FBECDBF09942A88398848885F84C8
:102F50006E847D848C849B84AA84B984C884DF8039
:102F6000EE80FD800C811B81AA81B981CE0FD11D1D
:102F70000FB6F894DEBF0FBECDBFED010895A29F3E
:102F8000B001B39FC001A39F700D811D1124911D3D
:102F9000B29F700D811D1124911D08955058BB27BB
:102FA000AA270E94E6170C9443170E94351738F0A1
:102FB0000E943C1720F039F49F3F19F426F40C943A
:102FC00032170EF4E095E7FB0C942C17E92F0E94C2
:102FD000541758F3BA17620773078407950720F050
:102FE00079F4A6F50C9476170EF4E0950B2EBA2F13
:102FF000A02D0B01B90190010C01CA01A0011124FF
:10300000FF27591B99F0593F50F4503E68F11A16AA
:10301000F040A22F232F342F4427585FF3CF46953B
:1030200037952795A795F0405395C9F77EF41F165D
:10303000BA0B620B730B840BBAF09150A1F0FF0F27
:10304000BB1F661F771F881FC2F70EC0BA0F621F13
:10305000731F841F48F4879577956795B795F79503
:103060009E3F08F0B0CF9395880F08F09927EE0F98
:103070009795879508950E944F180C9443170E94C6
:103080003C1758F00E94351740F029F45F3F29F0B3
:103090000C942C1751110C9477170C9432170E9432
:1030A000541768F39923B1F3552391F3951B550BEE
:1030B000BB27AA2762177307840738F09F5F5F4F0B
:1030C000220F331F441FAA1FA9F335D00E2E3AF04A
:1030D000E0E832D091505040E695001CCAF72BD062
:1030E000FE2F29D0660F771F881FBB1F26173707B3
:1030F0004807AB07B0E809F0BB0B802DBF01FF27E5
:1031000093585F4F3AF09E3F510578F00C942C177E
:103110000C9477175F3FE4F3983ED4F38695779548
:103120006795B795F7959F5FC9F7880F911D96959D
:10313000879597F90895E1E0660F771F881FBB1FF9
:10314000621773078407BA0720F0621B730B840BA6
:10315000BA0BEE1F88F7E09508950E945C1788F07F
:103160009F5798F0B92F9927B751B0F0E1F0660F4B
:10317000771F881F991F1AF0BA95C9F714C0B1308C
:1031800091F00E947617B1E008950C947617672F9E
:10319000782F8827B85F39F0B93FCCF386957795BB
:1031A0006795B395D9F73EF49095809570956195A4
:1031B0007F4F8F4F9F4F089597FB16F40E94201961
:1031C0000C94E318E894F92F96EBFF2381F0121684
:1031D00013061406440B9395F69587957795679596
:1031E00057954040FF23B9F71BC0992708958823BE
:1031F00051F49850D2F7872B762F652F542F432FF9
:10320000322F20E0B1F3121613061406440B882364
:103210003AF09A95440F551F661F771F881FCAF70B
:1032200055234AF4440F551F11F460FF04C06F5F2B
:103230007F4F8F4F9F4F880F9695879597F90895E9
:103240009095809570956095509540953095219515
:103250003F4F4F4F5F4F6F4F7F4F8F4F9F4F08959F
:103260000E949B1608F48FEF08950E949B16880B0E
:10327000990B0895DB018F939F930E947D17BF9157
:10328000AF91A29F800D911DA39F900DB29F900DB5
:1032900011240895A1E21A2EAA1BBB1BFD010DC02B
:1032A000AA1FBB1FEE1FFF1FA217B307E407F507F6
:1032B00020F0A21BB30BE40BF50B661F771F881FD2
:1032C000991F1A9469F760957095809590959B0168
:1032D000AC01BD01CF010895B7FF0C947D170E948A
:1032E0007D17821B930B0895DF93CF931F930F934A
:1032F0009A9DF02D219FF00D8B9DF00D8A9DE02D64
:10330000F10D039FF00D029FE00DF11D4E9DE00DAC
:10331000F11D5E9DF00D4F9DF00D7F936F93BF9259
:10332000AF925F934F93D5010E94BF178B01AC0101
:10333000D7010E94BF17EB01E80FF91FD6010E94C9
:10334000C4192F913F91D6010E94BF17C60FD71FF6
:10335000E81FF91FAF91BF910E94C4192F913F91AF
:103360000E94BF17C60FD71FE81FF91FD6010E9482
:10337000BF17E60FF71F9801BE01CF0111240F916F
:103380001F91CF91DF9108950E94BF17460F571FDD
:10339000C81FD91F08F431960895689401C0E894B5
:1033A000F92FF12B12F00C94011AA0E0B0E0EBED34
:1033B000F9E10C948E17092E059422F40E945D1AEF
:1033C000112392F4F0E80F26FFEFE094F0940095BB
:1033D0001095B094C094D094A194BF0ACF0ADF0A8C
:1033E000EF0AFF0A0F0B1F0B0E940C1A07FC0E942A
:1033F0005D1ACDB7DEB7ECE00C94AA17689401C053
:10340000E8948F929F92CF93DF930E940C1ADF91E2
:10341000CF919F908F90089588249924F401E4011E
:10342000B0E49F93AA279A158B049C04ED05FE0532
:10343000CF05D007A10798F4AD2FDC2FCF2FFE2F9B
:10344000E92D982C892E982F872F762F652F542FB2
:10345000432F322F2227B85031F7BF9127C01B2EA0
:10346000BF91BB27220F331F441F551F661F771FB5
:10347000881F991F881C991CEE1FFF1FCC1FDD1F82
:10348000AA1FBB1F8A149B04EC05FD05CE05DF05B2
:10349000A007B10748F08A189B08EC09FD09CE097E
:1034A000DF09A00BB10B21601A94E1F62EF4940110
:1034B000AF01BE01CD01000C089560957095809517
:1034C000909530954095509521953F4F4F4F5F4FC8
:1034D0006F4F7F4F8F4F9F4F08950F93083090F09D
:1034E000982F872F762F652F542F432F322F222787
:1034F0000850F4CF220F331F441F551F661F771F3C
:10350000881F991F0A95B2F70F91089597FB10F83D
:10351000169400080F93083098F00850232F342F8A
:10352000452F562F672F782F892F902DF4CF059494
:1035300097958795779567955795479537952795EB
:103540000A95AAF70F9108952A0D3B1D4C1D5D1D8C
:103550006E1D7F1D801F911F08952A193B094C097C
:103560005D096E097F09800B910B08950024A7FD6A
:1035700000942A1730054005500560057005800548
:1035800090050895EE0FFF1F0590F491E02D09942A
:10359000CF93DF938230910510F482E090E0E091C8
:1035A000A303F091A40320E030E0C0E0D0E0309726
:1035B00011F14081518148175907C0F04817590748
:1035C00061F482819381209719F09B838A832BC0B9
:1035D0009093A4038093A30326C02115310519F00D
:1035E0004217530718F49A01BE01DF01EF01028070
:1035F000F381E02DDCCF2115310509F1281B390BB2
:103600002430310590F412968D919C911397611599
:10361000710521F0FB019383828304C09093A4037E
:103620008093A303FD01329644C0FD01E20FF31F16
:1036300081939193225031092D933C933AC020916C
:10364000A1033091A203232B41F420910601309174
:1036500007013093A2032093A1032091040130912C
:1036600005012115310541F42DB73EB74091080100
:1036700050910901241B350BE091A103F091A203A5
:10368000E217F307A0F42E1B3F0B2817390778F039
:10369000AC014E5F5F4F2417350748F04E0F5F1F98
:1036A0005093A2034093A1038193919302C0E0E061
:1036B000F0E0CF01DF91CF9108950F931F93CF9347
:1036C000DF93009709F48CC0FC01329713821282B9
:1036D0000091A3031091A4030115110581F4208129
:1036E0003181820F931F2091A1033091A2032817EB
:1036F000390779F5F093A203E093A10371C0D801D3
:1037000040E050E0AE17BF0750F412962D913C9167
:103710001397AD012115310509F1D901F3CF9D01B1
:10372000DA013383228360817181860F971F8217AC
:10373000930769F4EC0128813981260F371F2E5F2A
:103740003F4F318320838A819B8193838283452BE2
:1037500029F4F093A403E093A30342C01396FC93CF
:10376000EE931297ED01499159919E01240F351F57
:10377000E217F30771F480819181840F951F0296FF
:1037800011969C938E938281938113969C938E9332
:103790001297E0E0F0E0D80112968D919C9113977A
:1037A000009719F0F8018C01F6CF8D919C9198014A
:1037B0002E5F3F4F820F931F2091A1033091A203F0
:1037C0002817390769F4309729F41092A40310924E
:1037D000A30302C0138212821093A2030093A103D9
:1037E000DF91CF911F910F910895A0E0B0E0EBEF32
:1037F000FBE10C948C17EC01009721F4CB010E94A3
:10380000C81AB8C0FC01E60FF71F9C01225031090D
:10381000E217F30708F4ACC0D9010D911C91119780
:1038200006171707B0F00530110508F49FC0C8014E
:1038300004978617970708F499C002501109061BD0
:10384000170B019311936D937C93CF010E945D1B25
:103850008DC05B01A01AB10A4C01800E911EA0918F
:10386000A303B091A40340E050E0E12CF12C1097A9
:1038700009F44AC0A815B905D1F56D907C9011974F
:10388000630182E0C80ED11CCA14DB0480F1A301DD
:103890004A195B096A0182E0C80ED11C1296BC90DD
:1038A00012971396AC91B5E0CB16D10440F0B282DA
:1038B000A38351834083D9016D937C930AC00E5F2B
:1038C0001F4FC301800F911FF90191838083EB2D5E
:1038D000FA2FE114F10431F0D7011396FC93EE9323
:1038E000129744C0F093A403E093A3033FC08D91CB
:1038F0009C9111974817590708F4AC017D01129665
:103900000D90BC91A02DB3CF8091A1039091A20303
:1039100088159905E1F446175707C8F4809104010A
:1039200090910501009741F48DB79EB74091080131
:1039300050910901841B950BE817F907C8F4F0931F
:10394000A203E093A103F901718360830FC0CB014F
:103950000E94C81A7C01009759F0A801BE010E947C
:10396000C41CCE010E945D1BC70104C0CE0102C071
:1039700080E090E0CDB7DEB7EEE00C94A81781E0D0
:1039800090E0F8940C94DD1CFB01DC0102C0019076
:103990000D9241505040D8F70895FB01DC018D9104
:1039A000019080190110D9F3990B0895FB01DC01F6
:1039B00001900D920020E1F7089510E0C2E6D0E0FA
:1039C00004C0FE010E94C21A2196C336D107C9F76E
:0439D000F894FFCF99
:1039D4005B085B080000A503800014039701D00175
:1039E40053005C004100B9007E002001F5007A021A
:1039F4005B02B3033E037903C20200000000C30765
:103A0400720C8C076A077E070A0800000000EA08A7
:103A1400BA08B2089E088F088E084E004E4E4F001A
:103A24004F4E4F004F534F0053534F0053005353C7
:103A3400570057535700574E57004E4E57004E4F9E
:103A44005F444952000D0A007265736574004E4369
:103A540043004E4F20424D453238302053454E539B
:103A64004F5220464F554E44004E4F204552524F20
:0E3A740052006E616E00696E66006F7666002D
:00000001FF
