:100000000C946A000C9444090C941D090C946F091B
:100010000C946F090C946F090C9492000C9492004C
:100020000C9492000C9492000C9492000C94920008
:100030000C9492000C9492000C9492000C949200F8
:100040000C94D3080C9492000C9481070C945B07D9
:100050000C9492000C9492000C9492000C949200D8
:100060000C9479090C949200130E010FE3122E13D5
:100070003113431456149F1400000000240027007D
:100080002A000000000023002600290004040404C4
:100090000404040402020202020203030303030332
:1000A000010204081020408001020408102001020F
:1000B00004081020000000080002010000030407EB
:1000C00000000000000000000000000025002800E3
:1000D0002B00681511241FBECFEFD8E0DEBFCDBFC7
:1000E00023E0A2EEB1E001C01D92AC3EB207E1F701
:1000F00011E0A0E0B1E0E4E7F8E302C005900D9262
:10010000A23EB107D9F710E0CAE6D0E004C02197BB
:10011000FE010E94D018C936D107C9F70E94A70A6C
:100120000C94381C0C94000020916E029091910365
:10013000213208F04AC080914B028111FCCF32E09D
:1001400030934B0231E030934A023FEF3093490243
:100150001092480220934702AEE4B2E047E252E038
:10016000FA013E2F341B321718F43D913193F9CF29
:100170001092260220912602990F922B909326022C
:1001800090912502913061F41092250290912602FF
:100190009093BB009091BC0093FDF8CF95EC01C00B
:1001A00095EE9093BC0090914B029230E1F39091C8
:1001B00049029F3F79F080914902803241F080915D
:1001C0004902803331F084E005C081E003C082E061
:1001D00001C083E010924D0210926E0210924C0208
:1001E0000895CF92DF92EF92FF920F931F93CF93D8
:1001F000DF936C017A018B01C0E0D0E0CE15DF0502
:1002000089F0D8016D918D01D601ED91FC9101909D
:10021000F081E02DC6010995892B11F47E0102C001
:100220002196ECCFC701DF91CF911F910F91FF90E5
:10023000EF90DF90CF900895CF92DF92EF92FF92F0
:100240000F931F93CF93DF9390916C039F3F39F4EB
:100250008EBD00000DB407FEFDCF8EB544C0E82E64
:10026000C7E0D0E0D12C01E010E0DD0C60E080912F
:100270006C030E94DC07B8010C2E01C0660F0A94C3
:10028000EAF76E2180916A030E94DC0761E08091A9
:100290006C030E94DC0720916B0330E0F901EC5401
:1002A000FF4F8491F901E056FF4FC490F901E457E4
:1002B000FF4FF490FF2071F081110E94B307EF2DE2
:1002C000F0E0EE0FFF1FEE57FF4FA591B491EC91B8
:1002D000EC2129F4219708F0C8CF8D2D04C08D2D75
:1002E0008160D82EF7CFDF91CF911F910F91FF90B2
:1002F000EF90DF90CF90089590914B029111FCCF39
:10030000613208F060E291E090934B0290934A02D0
:100310002FEF2093490210924802260F20934702A4
:100320009093260290912602880F892B80932602B3
:1003300080912502813061F410922502809126027D
:100340008093BB008091BC0083FDF8CF85EC01C099
:1003500085EE8093BC0080914B028130E1F3809167
:100360004802861710F460914802A7E2B2E025E047
:1003700032E0F9018E2F821B861718F48D9181933C
:10038000F9CF1092040260930302862F0895EFE6DE
:10039000F2E0A089B18982E08C93A485B5851C9296
:1003A000A685B7858FEC8C93108EA489B58986E0DD
:1003B0008C93A289B3898C9180618C93A289B38933
:1003C0008C9188608C93A289B3898C9180688C937E
:1003D0000288F389E02D80818F7D80830895E091EC
:1003E0006F02F09170020190F081E02D682F8FE68E
:1003F00092E00994CF93DF93D82FC62F80916903A1
:100400008F3FC9F48091600391E090934C028093F8
:10041000910310924D0210926E026D2F84E593E0CD
:100420000E9420076C2F84E593E00E942007DF9153
:10043000CF910C94940080916C038F3F21F482E55E
:1004400091E00E946C0960E0809169030E94DC07E2
:100450008D2F8F770E941C018C2F0E941C0161E060
:10046000809169030E94DC0780916C038F3F21F427
:10047000DF91CF910C946B09DF91CF910895CF93C9
:10048000C82F809169038F3FE9F48091600391E068
:1004900090934C028093910310924D0210926E0241
:1004A0006C2F84E593E00E9420070E94940061E095
:1004B000809160030E947C0184E593E00E94D40651
:1004C000C82F20C080916C038F3F21F482E591E01A
:1004D0000E946C0960E0809169030E94DC078C2F08
:1004E00080680E941C0180E00E941C01C82F61E00E
:1004F000809169030E94DC0780916C038F3F11F4A7
:100500000E946B098C2FCF910895CF93DF93C82F52
:10051000809169038F3F39F58091600391E090935A
:100520004C028093910310924D0210926E026C2F38
:1005300084E593E00E9420070E94940062E080918D
:1005400060030E947C0184E593E00E94D406C82FDA
:1005500084E593E00E94D40620E030E03C2FE901DE
:10056000C82BD92B29C080916C038F3F21F482E5E1
:1005700091E00E946C0960E0809169030E94DC07B1
:100580008C2F80680E941C0180E00E941C01C82FF3
:1005900080E00E941C012C2F30E0322F2227E9013D
:1005A000C82B61E0809169030E94DC0780916C0395
:1005B0008F3F11F40E946B09CE01DF91CF91089516
:1005C0000E9485029827892798270895CF92DF9265
:1005D000EF92FF92CF93C82F809169038F3F09F06C
:1005E00040C08091600391E090934C02809391030E
:1005F00010924D0210926E026C2F84E593E00E94DF
:1006000020070E94940063E0809160030E947C01B7
:1006100084E593E00E94D4066C01990FEE08FF0870
:10062000FE2CED2CDC2CCC2484E593E00E94D40637
:10063000AC01990F660B770BC42AD52AE62AF72A54
:10064000FE2CED2CDC2CCC2484E593E00E94D40617
:10065000AC01990F660B770BC42AD52AE62AF72A34
:1006600033C080916C038F3F21F482E591E00E94BA
:100670006C0960E0809169030E94DC078C2F806820
:100680000E941C0180E00E941C01C82ED12CE12C8C
:10069000F12CFE2CED2CDC2CCC2480E00E941C01E3
:1006A000C82AFE2CED2CDC2CCC2480E00E941C01FE
:1006B000C82A61E0809169030E94DC0780916C0385
:1006C0008F3F11F40E946B09C701B601CF91FF90D3
:1006D000EF90DF90CF9008958F929F92AF92BF924C
:1006E000CF92DF92EF92FF928AEF0E94E6026115AD
:1006F000710520E88207910509F47CC040916D03E3
:1007000050916E034A01A12CB12CC72ED82EE92E90
:10071000FF24E7FCFA94C818D908EA08FB08DC01B2
:10072000CB0137E0B595A795979587953A95D1F781
:10073000B501A401440F551F661F771F4C015D01D1
:10074000841A950AA60AB70AA5019401A0916F031D
:10075000B09170030E94D6184B015C01FBE0B59488
:10076000A79497948794FA95D1F7A7019601C701AA
:10077000B6010E94E1169B01AC01ACE0559547958E
:1007800037952795AA95D1F7A0917103B09172037F
:100790000E94D618DC01CB012EE0B595A795979560
:1007A00087952A95D1F7A5019401280F391F4A1F73
:1007B0005B1F209365033093660340936703509358
:1007C0006803A5E0B0E00E941317DC01CB0180585C
:1007D0009F4FAF4FBF4F692F7A2F8B2F992787FDE0
:1007E0009A950E94C41520E030E048EC52E40E9443
:1007F000D11704C060E070E080EC9FE7FF90EF90BD
:10080000DF90CF90BF90AF909F908F900895EF9220
:10081000FF920F931F93CF93DF93EC017B018A012B
:1008200088819981009729F02A813B812417350717
:10083000F8F4B8016F5F7F4F0E94591B009759F081
:10084000998388831B830A832C813D81232B81F428
:10085000FC0110820DC088819981009711F00E94DF
:10086000C11A198218821D821C821B821A8207C03B
:100870001D830C83B701888199810E94311CCE01B0
:10088000DF91CF911F910F91FF90EF900895FC01A0
:1008900011821082138212821582148261157105F1
:1008A00051F0FB0101900020E9F73197AF01461BA1
:1008B000570B0C94070408956115710579F0FB013D
:1008C00001900020E9F73197AF01461B570BDC017F
:1008D000ED91FC910280F381E02D099480E090E09D
:1008E00008954F925F926F927F92EF92FF920F93D3
:1008F0001F93CF93DF93CDB7DEB7A1970FB6F894D0
:10090000DEBF0FBECDBF7C01FA01CB0119A22230A0
:1009100008F42AE08E010F5D1F4F422E512C612CEE
:10092000712CBF01A30192010E94F116F901CA01C5
:10093000015011096A3014F4605D01C0695CD8018E
:100940006C93232B242B252B61F7B801C7010E9440
:100950005C04A1960FB6F894DEBF0FBECDBFDF9149
:10096000CF911F910F91FF90EF907F906F905F90CC
:100970004F9008954F925F926F927F928F929F92C5
:10098000AF92BF92CF92DF92EF92FF926B017C0108
:100990009B01AC010E94CB18882319F065ED71E032
:1009A0001AC046015701E894B7F82FEF3FEF4FE721
:1009B0005FE7C501B4010E94CB18811112C02FEF6F
:1009C0003FEF4FE75FE7C501B4010E94BD15181660
:1009D00044F469ED71E08FE692E00E945C047C01D2
:1009E00086C02FEF3FEF4FE75FE4C701B6010E94DB
:1009F000C61818161CF46DED71E0EDCF2FEF3FEF28
:100A00004FE75FECC701B6010E94BD1587FDF3CF2C
:100A100020E030E0A901C701B6010E94BD1587FFA3
:100A200009C08DE20E94EF015C01F7FAF094F7F83B
:100A3000F09402C0A12CB12C2AE037ED43EA5BE32D
:100A4000C701B6010E9465172B013C010E944318A3
:100A50006B017C010E94C2159B01AC01C301B20174
:100A60000E9464172B013C012AE0B701A6018FE622
:100A700092E00E9471047C01EA0CFB1C8EE20E9451
:100A8000EF01E80EF91E20E030E040E251E4C3013E
:100A9000B2010E9423162B013C010E9443184B0116
:100AA000A12CB12C2AE0B501A4018FE692E00E94AE
:100AB0007104E80EF91EC501B4010E94C2159B0124
:100AC000AC01C301B2010E94641720E030E040E2B3
:100AD00051E40E9423160E944318AB0160E070E0CD
:100AE0002AE08FE692E00E947104E80EF91E69E5A3
:100AF00071E08FE692E00E945C048E0D9F1DFF90D6
:100B0000EF90DF90CF90BF90AF909F908F907F90AD
:100B10006F905F904F9008950F931F93CF93DF9343
:100B2000EC010E945C048C0169E571E0CE010E9439
:100B30005C04800F911FDF91CF911F910F91089559
:100B4000FC01918D828D981761F0828DDF01A80FD5
:100B5000B11D5D968C91928D9F5F9F73928F90E0F7
:100B600008958FEF9FEF0895FC01918D828D981766
:100B700031F0828DE80FF11D858D90E008958FEFA3
:100B80009FEF0895FC01918D228D892F90E0805C6C
:100B90009F4F821B91098F73992708958FE692E0EA
:100BA0000E94C20521E0892B09F420E0822F0895DC
:100BB000FC01848DDF01A80FB11DA35ABF4F2C91FA
:100BC000848D90E001968F739927848FA689B789C9
:100BD0002C93A089B1898C9180648C93938D848DA2
:100BE000981306C00288F389E02D80818F7D808371
:100BF0000895EF92FF920F931F93CF93DF93EC0131
:100C000081E0888F9B8D8C8D981305C0E889F989C8
:100C1000808185FD24C0F62E0B8D10E00F5F1F4FE5
:100C20000F731127E02E8C8DE8120CC00FB607FC55
:100C3000FACFE889F989808185FFF5CFCE010E943E
:100C4000D805F1CF8B8DFE01E80FF11DE35AFF4F60
:100C5000F0820B8FEA89FB898081806207C0EE8970
:100C6000FF896083E889F98980818064808381E0DD
:100C700090E0DF91CF911F910F91FF90EF90089539
:100C8000CF93DF93EC01888D8823C9F0EA89FB8933
:100C9000808185FD05C0A889B9898C9186FD0FC02A
:100CA0000FB607FCF5CF808185FFF2CFA889B989FF
:100CB0008C9185FFEDCFCE010E94D805E7CFDF9163
:100CC000CF91089580E090E0892B29F00E94CE0515
:100CD00081110C94000008953FB7F8948091E403CB
:100CE0009091E503A091E603B091E70326B5A89B98
:100CF00005C02F3F19F00196A11DB11D3FBFBA2FAE
:100D0000A92F982F8827820F911DA11DB11DBC010D
:100D1000CD0142E0660F771F881F991F4A95D1F7D2
:100D20000895089585ED8093BC008091BC0084FDFA
:100D3000FCCF10924B0208954091B803262F30E06B
:100D4000240F311D21323105DCF420914B02243077
:100D5000C9F4FC0180E090E0861758F43091B803A4
:100D60002191DC01AA56BC4FA30FB11D2C93019613
:100D7000F3CF8091B803680F6093B80380E00895C3
:100D800081E0089582E008950895E0910402809141
:100D90000302E81730F4F0E0EB5FFD4F808190E054
:100DA00008958FEF9FEF08959091040280910302C0
:100DB000981750F4E92FF0E0EB5FFD4F208130E011
:100DC0009F5F9093040202C02FEF3FEFC901089587
:100DD0008091030290E020910402821B9109089502
:100DE000CF92DF92EF92FF920F931F93CF93DF93F7
:100DF0007C01262F972F8A0180914C02882391F045
:100E0000C62FD72F6E01C40ED51ECC15DD0571F08F
:100E10006991D701ED91FC910190F081E02DC7011E
:100E20000995F3CF642F822F0E949C06C801DF91A1
:100E3000CF911F910F91FF90EF90DF90CF90089589
:100E4000CF93DF931F92CDB7DEB7698320914C0219
:100E50002223D1F020916E02203240F021E030E0D8
:100E6000FC013383228380E090E015C080914D0225
:100E7000E82FF0E0E25BFD4F998190838F5F8093D4
:100E80004D0280936E0205C061E0CE0101960E9482
:100E90009C0681E090E00F90DF91CF9108958091C2
:100EA000E2019091E30101969093E3018093E201C6
:100EB00008950E94231C1F920F920FB60F921124C7
:100EC0002F933F934F935F936F937F938F939F9352
:100ED000AF93BF93EF93FF938FE692E00E94D80504
:100EE000FF91EF91BF91AF919F918F917F916F9102
:100EF0005F914F913F912F910F900FBE0F901F90D8
:100F000018951F920F920FB60F9211242F938F9363
:100F10009F93EF93FF93E0917F02F0918002808195
:100F2000E0918502F091860282FD12C0908180914D
:100F300088028F5F8F7320918902821751F0E091B0
:100F40008802F0E0E159FD4F958F8093880201C03F
:100F50008081FF91EF919F918F912F910F900FBE04
:100F60000F901F901895833081F028F4813099F00C
:100F70008230A1F008958730A9F08830B9F084302C
:100F8000D1F4809180008F7D03C0809180008F77A5
:100F900080938000089584B58F7702C084B58F7DDB
:100FA00084BD08958091B0008F7703C08091B00018
:100FB0008F7D8093B00008951F93CF93DF93282FE8
:100FC00030E0F901EC54FF4F8491F901E056FF4FF6
:100FD000D491F901E457FF4FC491CC23C9F0162FE7
:100FE00081110E94B307EC2FF0E0EE0FFF1FE853D2
:100FF000FF4FA591B4918FB7F894111105C09C9142
:10100000ED2FE095E92302C0EC91ED2BEC938FBF1F
:10101000DF91CF911F910895CF93DF9390E0FC0172
:10102000E056FF4F2491FC01E457FF4F8491882341
:1010300061F190E0880F991FFC01E858FF4FC591BE
:10104000D491FC01E853FF4FA591B491611109C0FF
:101050009FB7F8948881209582238883EC912E2372
:101060000BC0623061F49FB7F8943881822F80956D
:1010700083238883EC912E2B2C939FBF06C08FB7C0
:10108000F894E8812E2B28838FBFDF91CF910895AC
:101090008F929F92AF92BF92CF92DF92EF92FF9288
:1010A0006B017C010E946C064B015C01C114D104F0
:1010B000E104F104F1F00E946C06DC01CB01881917
:1010C0009909AA09BB09883E9340A105B10570F3AF
:1010D00021E0C21AD108E108F10888EE880E83E009
:1010E000981EA11CB11CC114D104E104F10419F72C
:1010F000DDCFFF90EF90DF90CF90BF90AF909F90AB
:101100008F9008952FB7F8946091E0037091E103F8
:101110008091E2039091E3032FBF0895CF92DF9275
:10112000EF92FF928091920390919303A091940388
:10113000B0919503892B8A2B8B2B79F0C090920369
:10114000D0909303E0909403F09095030E9482085E
:10115000C616D706E806F90608F58091E4019091D5
:10116000E50101969093E5018093E4018091E60109
:101170009091E70101969093E7018093E6010E9428
:101180008208DC01CB01C296A11DB11D80939203A0
:1011900090939303A0939403B0939503FF90EF90E3
:1011A000DF90CF9008951F920F920FB60F921124E7
:1011B0002F933F938F939F93AF93BF938091E003BF
:1011C0009091E103A091E203B091E3033091DF033A
:1011D00023E0230F2D3720F40196A11DB11D05C07A
:1011E00026E8230F0296A11DB11D2093DF038093F3
:1011F000E0039093E103A093E203B093E3038091B3
:10120000E4039091E503A091E603B091E703019612
:10121000A11DB11D8093E4039093E503A093E60321
:10122000B093E703BF91AF919F918F913F912F9121
:101230000F900FBE0F901F9018951F920F920FB630
:101240000F9211242F933F934F935F936F937F934C
:101250008F939F93AF93BF93EF93FF93E09102011E
:10126000F09103010995FF91EF91BF91AF919F918B
:101270008F917F916F915F914F913F912F910F903F
:101280000FBE0F901F9018951F920F920FB60F92DE
:1012900011242F933F934F935F936F937F938F937B
:1012A0009F93AF93BF93EF93FF93E0910001F09171
:1012B00001010995FF91EF91BF91AF919F918F919E
:1012C0007F916F915F914F913F912F910F900FBE42
:1012D0000F901F90189508958CBD9DBD08951F9285
:1012E0000F920FB60F9211240F900FBE0F901F9008
:1012F00018951F920F920FB60F9211242F933F93C0
:101300004F935F936F937F938F939F93AF93BF930D
:10131000EF93FF938091B900887F803609F49CC0D9
:1013200068F5883209F45BC090F4803109F454C048
:1013300038F4882309F4F6C0883009F44DC0F6C0AB
:10134000883109F44CC0803209F45DC0EFC08034AC
:1013500009F468C048F4803309F455C0883309F0B3
:10136000E5C080934902D8C0803509F44FC0883564
:1013700009F45DC0883409F0D9C0D6C0883909F4B1
:10138000C7C0A8F4883709F467C038F4883609F470
:1013900063C0803709F460C0C9C0883809F4B8C098
:1013A000803909F45FC0803809F0C0C05BC0803B61
:1013B00009F486C038F4803A09F466C0883A09F422
:1013C0007FC0B4C0803C09F4A7C0883C09F4A4C025
:1013D000883B09F48AC0AAC08091260210C090916F
:1013E000480280914702981770F5E091480281E029
:1013F0008E0F80934802F0E0E95DFD4F808180937D
:10140000BB0085EC86C0809349028EC0E091480203
:1014100081E08E0F809348028091BB00F0E0E95D8F
:10142000FD4F808390914802809147026EC0E09109
:10143000480281E08E0F809348028091BB00F0E06B
:10144000E95DFD4F808380914A0281116DC081E08A
:101450008093250284EA61C083E080934B0210925E
:10146000DC03CFCF8091DC03803208F051C0E091E3
:10147000DC0381E08E0F8093DC038091BB00F0E001
:10148000E454FC4F8083BDCF85EC8093BC00109268
:101490004B028091DC03803230F4E091DC03F0E019
:1014A000E454FC4F10826091DC0370E0E091BA03D9
:1014B000F091BB038CEB93E009951092DC0336C0EE
:1014C00084E080934B021092B9031092B803E0912C
:1014D000B603F091B70309958091B803811105C057
:1014E00081E08093B80310929603E091B90381E004
:1014F0008E0F8093B903F0E0EA56FC4F8081809311
:10150000BB009091B9038091B803981708F479CF84
:1015100085E88093BC000AC085EC8093BC001092E3
:101520004B0204C0109249020E949206FF91EF9173
:10153000BF91AF919F918F917F916F915F914F91EB
:101540003F912F910F900FBE0F901F901895CF9342
:10155000DF93CDB7DEB7CC5AD1090FB6F894DEBF12
:101560000FBECDBF789484B5826084BD84B58160A0
:1015700084BD85B5826085BD85B5816085BD80915E
:101580006E00816080936E001092810080918100D6
:1015900082608093810080918100816080938100CE
:1015A000809180008160809380008091B100846090
:1015B0008093B1008091B00081608093B0008091F1
:1015C0007A00846080937A0080917A0082608093B0
:1015D0007A0080917A00816080937A0080917A000D
:1015E000806880937A001092C1001092500310928C
:1015F0005103109252031092530310920E03109253
:101600000F03109210031092110360ED77E080E059
:1016100090E00E9448088FE692E090934F038093F9
:101620004E030E94C7010E94820860930E037093CC
:101630000F0380931003909311036AE471E080918B
:101640004E0390914F030E945C046AE070E080E0DA
:1016500090E00E94480811E0109322030E94C70105
:1016600060E082E00E940C0860E083E00E940C08C9
:1016700061E08DE00E940C0861E082E00E94DC07DE
:1016800061E083E00E94DC078EE898E0909301011E
:1016900080930001809169008C7F82608093690053
:1016A000E89A8FE497E09093030180930201809180
:1016B0006900837F886080936900E99A0E948208AC
:1016C0006093E9017093EA018093EB019093EC0140
:1016D0000E9482086093ED017093EE018093EF0108
:1016E0009093F00187E780936003809169038F3FB7
:1016F00039F5109204021092030210924D021092DA
:101700006E0210924B0210934A021092250261E081
:1017100082E10E94DC0761E083E10E94DC078091A6
:10172000B9008E7F8093B9008091B9008D7F80933E
:10173000B90088E48093B80085E48093BC004EC073
:1017400061E00E94DC0761E0809169030E940C085F
:1017500080916C038F3F09F034C01FB7F8948091DB
:10176000E801811127C0E6E9F0E08491EAEAF0E0BF
:101770009491E82FF0E0EE0FFF1FE858FF4FA5917E
:10178000B491EC91E92321F461E08AE00E94DC0746
:1017900061E08AE00E940C088CB580618CBD8CB53C
:1017A00080648CBD61E08DE00E940C0861E08BE0FC
:1017B0000E940C088091E8018F5F8093E8011FBFB1
:1017C0000DC061E00E940C0861E080916A030E94F4
:1017D0000C0860E080916B030E940C0880ED0E9471
:1017E0003F02803611F00C94381566EB80EE0E94B3
:1017F000FA016CE271E080E090E00E94480883EF1B
:101800000E943F0280FF05C064E670E080E090E047
:10181000F4CF88E80E94E00290936E0380936D03FA
:101820008AE80E94E0029093700380936F038CE833
:101830000E94E00290937203809371038EE80E94ED
:10184000E002909374038093730380E90E94E002A6
:10185000909376038093750382E90E94E00290934F
:1018600078038093770384E90E94E00290937A03DF
:101870008093790386E90E94E00290937C03809331
:101880007B0388E90E94E00290937E0380937D03AE
:101890008AE90E94E0029093800380937F038CE9A1
:1018A0000E94E00290938203809381038EE90E945C
:1018B000E002909384038093830381EA0E943F02B5
:1018C0008093850381EE0E94E002909387038093CA
:1018D000860383EE0E943F028093880384EE0E9479
:1018E0003F02182F85EE0E943F02282F2F7030E113
:1018F000139FC0011124822B90938A038093890344
:1019000086EE0E943F02182F85EE0E943F0290E073
:10191000E4E095958795EA95E1F740E1149F900101
:101920001124822B932B90938C0380938B0387EE4F
:101930000E943F0280938D038DEE80938F038091F0
:1019400090038F71806A8093900380918E03807CD6
:1019500080938E0365E082EF0E94FA0190918E03DE
:10196000692F677050E2659F90011124892F869539
:10197000869586958770A8E08A9FB0011124622B16
:10198000732B97FB992790F9692B85EF0E94FA0139
:1019900090918F03692F6770B0E26B9F90011124C3
:1019A000892F8695869586958770E8E08E9FB00191
:1019B0001124622B732B9295969596959370692BB3
:1019C00084EF0E94FA0160E08DE00E94DC070E9433
:1019D0008208672B682B692B41F40E9482086230D1
:1019E00071058105910508F408C10E948208609381
:1019F000FF01709300028093010290930202009114
:101A0000FB011091FC012091FD013091FE01601756
:101A100071078207930740F46093FB017093FC0108
:101A20008093FD019093FE010091FB011091FC0158
:101A30002091FD013091FE016B017C01C01AD10A99
:101A4000E20AF30A970186010A3F110521053105D3
:101A500008F4D3C06093FB017093FC018093FD01F7
:101A60009093FE0124EF31E040E050E020931A0310
:101A700030931B0340931C0350931D0310921E03CD
:101A800010921F03109220031092210380911203E1
:101A900090911303A0911403B09115038093160342
:101AA00090931703A0931803B09319030E94820820
:101AB00060931203709313038093140390931503A0
:101AC0000E94820860930E0370930F0380931003AB
:101AD000909311030E9482086B017C016CE571E018
:101AE00080914E0390914F030E945C042AE041E0F4
:101AF00050E060E070E080914E0390914F030E94AF
:101B0000710463E671E080914E0390914F030E944F
:101B10005C042AE0B701A60180914E0390914F0327
:101B20000E94710465E671E080914E0390914F032D
:101B30000E945C048091120390911303A0911403FE
:101B4000B0911503B701A601481B590B6A0B7B0B1B
:101B50002AE080914E0390914F030E94710465E644
:101B600071E080914E0390914F030E945C0440917C
:101B70001203509113036091140370911503809127
:101B8000160390911703A0911803B0911903481BF5
:101B9000590B6A0B7B0B2AE080914E0390914F0307
:101BA0000E94710467E671E080914E0390914F03AB
:101BB0000E945C040E948208AB01BC012AE0809173
:101BC0004E0390914F030E94710469E671E0809189
:101BD0004E0390914F030E948C0565E070E080E019
:101BE00090E00E9448080E9482086093120370935C
:101BF000130380931403909315038FE692E00E94E1
:101C0000C205181619060CF0A3C68FE692E00E94D2
:101C1000A005C1978830910508F094C68C5C9F4F51
:101C2000FC010C94D0180E946C038DEF0E94850279
:101C3000A0E0B0E08115F0E89F07A105B10509F427
:101C4000DBC08090650390906603A0906703B0901E
:101C500068032CE2921A21E0A20AB1085EE0880F24
:101C6000991FAA1FBB1F5A95D1F740918903509124
:101C70008A03052E000C660B770BE4E1440F551F19
:101C8000661F771FEA95D1F76C017D01C41AD50A4A
:101C9000E60AF70AA0918B03B0918C03A501940189
:101CA0000E94D618C61AD70AE80AF90A30E4D30EF9
:101CB000E11CF11CFFE0F594E794D794C794FA95E2
:101CC000D1F7A0918D030A2E000CBB0BA501940146
:101CD0000E94D6182B013C01AAE075946794579492
:101CE0004794AA95D1F7A0918803B0E00E941317FA
:101CF000DC01CB011BE0B595A795979587951A95C3
:101D0000D1F7BC01CD0170588F4F9F4FA3019201B5
:101D10000E94E116DC01CB010AE0B595A7959795E5
:101D200087950A95D1F79C01AD01405E5F4FA09168
:101D30008603B09187030E94D618DC01CB01905E28
:101D4000AF4FBF4FBC01CD012EE09595879577959C
:101D500067952A95D1F7A70196010E94E1166B01BC
:101D60007C013FE095958795779567953A95D1F7F2
:101D70009B01AC010E94E1169B01AC0167E0559507
:101D80004795379527956A95D1F7A0918503B0E0DF
:101D90000E941317DC01CB0174E0B595A7959795C8
:101DA00087957A95D1F7A7019601281B390B4A0B25
:101DB0005B0BDA01C90157FF03C080E090E0DC0152
:101DC00081309105A10539E1B30724F080E090E06E
:101DD000A0E0B9E1BC01CD014CE0959587957795E0
:101DE00067954A95D1F70E94C41520E030E040E89D
:101DF0005AE30E942316E4C360E070E080EC9FE7A2
:101E0000DFC30E946C0387EF0E94E602C157DF4FD9
:101E1000688379838A839B83CF58D040611571058D
:101E20008048910509F4BEC38091650390916603D3
:101E3000A0916703B09168036C017D01FF0CCC0891
:101E4000DC2C76019C01AD016C2D7C2D8C2D9C2D04
:101E5000345F414051096109710981099109C957EC
:101E6000DF4F2883C758D040C857DF4F3883C85842
:101E7000D040C757DF4F4883C958D040C657DF4FBF
:101E80005883CA58D040C557DF4F6883CB58D040DD
:101E9000C457DF4F7883CC58D040C357DF4F888377
:101EA000CD58D040C257DF4F9883CE58D04059010B
:101EB0006A017B018C010E94DE18C256DF4F288325
:101EC000CE59D040C156DF4F3883CF59D040C0568D
:101ED000DF4F4883C05AD040CF55DF4F5883C15A97
:101EE000D040CE55DF4F6883C25AD040CD55DF4F2A
:101EF0007883C35AD040CC55DF4F8883C45AD04032
:101F0000CB55DF4F9883C55AD04050917D03CA55B9
:101F1000DF4F5883C65AD04080917E03CD56DF4FA5
:101F20008883C359D04090917B03C955DF4F988374
:101F3000C75AD040A0917C03CC56DF4FA883C45928
:101F4000D040B0917903C855DF4FB883C85AD0400C
:101F5000E0917A03CB56DF4FE883C559D040B0906B
:101F60007603A09075031B2D110F110BC12ED12EDE
:101F7000E12EF12E012FC957DF4F2881C758D040DD
:101F8000C857DF4F3881C858D040C757DF4F488106
:101F9000C958D040C657DF4F5881CA58D040C5579E
:101FA000DF4F6881CB58D040C457DF4F7881CC5881
:101FB000D040C357DF4F8881CD58D040C257DF4F44
:101FC0009881CE58D0400E94DE180CE00E94D719AC
:101FD00019012A013B014C01B0907803A0907703CE
:101FE0001B2D110F110BC12ED12EE12EF12E012F21
:101FF000C256DF4F2881CE59D040C156DF4F3881BD
:10200000CF59D040C056DF4F4881C05AD040CF553D
:10201000DF4F5881C15AD040CE55DF4F6881C25A38
:10202000D040CD55DF4F7881C35AD040CC55DF4FDB
:102030008881C45AD040CB55DF4F9881C55AD040D3
:102040000E94DE1808E00E94F0195101620173013C
:1020500084010E940E1A70588F4F9F4F2090730377
:10206000309074035101C12CD12CE12CF12C00E0F3
:1020700010E00E94DE1801E20E94F019CA56DF4FFC
:102080002883C659D040C956DF4F3883C759D0403E
:10209000C856DF4F4883C859D040C756DF4F5883D2
:1020A000C959D040C656DF4F6883CA59D040C5567B
:1020B000DF4F7883CB59D040C456DF4F8883CC594B
:1020C000D040C356DF4F9883CD59D040A0E00E9446
:1020D000201A09F46CC2CA55DF4FA880C65AD040F6
:1020E000CD56DF4F1881C359D040110F110BCD567B
:1020F000DF4FB880C359D040C12ED12EE12EF12E32
:10210000012FC256DF4F2881CE59D040C156DF4F34
:102110003881CF59D040C056DF4F4881C05AD04097
:10212000CF55DF4F5881C15AD040CE55DF4F68811F
:10213000C25AD040CD55DF4F7881C35AD040CC55DC
:10214000DF4F8881C45AD040CB55DF4F9881C55AA4
:10215000D0400E94DE1819012A013B014C01C955EB
:10216000DF4FA880C75AD040CC56DF4F1881C459E2
:10217000D040110F110BCC56DF4FB880C459D0405E
:10218000C12ED12EE12EF12E012FC957DF4F28810C
:10219000C758D040C857DF4F3881C858D040C757BC
:1021A000DF4F4881C958D040C657DF4F5881CA58C1
:1021B000D040C557DF4F6881CB58D040C457DF4F60
:1021C0007881CC58D040C357DF4F8881CD58D0405C
:1021D000C257DF4F9881CE58D0400E94DE1801E1EF
:1021E0000E94D71959016A017B018C019101A2015A
:1021F000B301C4010E940E1A19012A013B014C01CE
:10220000C157DF4F488159816A817B81CF58D040C7
:1022100084E075956795579547958A95D1F780E045
:1022200090E0A0E1B0E0841B950BA60BB70B6C010E
:102230007D01FF0CCC08DC2C76019C01AD016C2DDE
:102240007C2D8C2D9C2D0FE10E94D719B22FA32F2E
:10225000F42FE52FC957DF4F6883C758D040C857C0
:10226000DF4F7883C858D040C757DF4F8883C9589D
:10227000D040C657DF4F9883CA58D040C855DF4F6B
:102280002881C85AD040CB56DF4F9881C559D040DD
:10229000990F990BCB56DF4F3881C559D040492F44
:1022A000592F692F792F892F03E20E94D7195901DD
:1022B0006A017B018C019101A201B301C4010E945A
:1022C0000E1A59016A017B018C012B2F3A2F4F2FD7
:1022D0005E2FC957DF4F6881C758D040C857DF4FBE
:1022E0007881C858D040C757DF4F8881C958D0403F
:1022F000C657DF4F9881CA58D0400E94171A722ED5
:10230000832E942EB52FA62FF72FE82F592E03E0FA
:102310000E94D719A72CB82CC92CDB2EEA2EFF2E31
:102320000E2F152D0E94171A59016A017B01682E84
:10233000192F03E00E94D719062D0E94171A03E0F7
:102340000E94D719A72CB82CC92CDB2EEA2EFF2E01
:102350000E2F152D0E94171A02E00E94D7190E2F7A
:102360000E94171A01E00E94D7190E2F0E94171A17
:10237000CA56DF4FA880C659D040C956DF4FB88033
:10238000C759D040C856DF4FC880C859D040C7563B
:10239000DF4FD880C959D040C656DF4FE880CA59B0
:1023A000D040C556DF4FF880CB59D040C456DF4FE0
:1023B0000881CC59D040C356DF4F1881CD59D04049
:1023C0000E943919C957DF4F2883C758D040C857D2
:1023D000DF4F3883C858D040C757DF4F4883C958AC
:1023E000D040C657DF4F5883CA58D040C557DF4F3B
:1023F0006883CB58D040C457DF4F7883CC58D04047
:10240000C357DF4F8883CD58D040C257DF4F9883E2
:10241000CE58D0400DE00E94F019322E432E542E9B
:10242000652E762E872E982E292E309184032091AA
:102430008303932F990F990BA32CB42CC52CD62C66
:10244000E72CF82C092D122D492F592F692F792FA0
:10245000892F0E94DE180E94DE1809E10E94F019FF
:1024600059016A017B018C01C957DF4F2881C75888
:10247000D040C857DF4F3881C858D040C757DF4FCA
:102480004881C958D040C657DF4F5881CA58D040FC
:10249000C557DF4F6881CB58D040C457DF4F788194
:1024A000CC58D040C357DF4F8881CD58D040C25759
:1024B000DF4F9881CE58D0400E940E1A19012A0190
:1024C0003B014C013091820320918103932F990F9E
:1024D000990BC957DF4FA880C758D040C857DF4F66
:1024E000B880C858D040C757DF4FC880C958D040BF
:1024F000C657DF4FD880CA58D040C557DF4FE88055
:10250000CB58D040C457DF4FF880CC58D040C35789
:10251000DF4F0881CD58D040C257DF4F1881CE58C9
:10252000D040492F592F692F792F892F0E94DE180B
:1025300003E10E94F01959016A017B018C019101AC
:10254000A201B301C4010E940E1A08E00E94F01912
:1025500039014A01B62FA72FF82FE92F30918003B8
:1025600020917F03932F990F990B492F592F692F92
:10257000792F892F04E00E94D71959016A017B0144
:102580008C019301A4016B2F7A2F8F2F9E2F0E9415
:102590000E1A0E94721820E030E040E85BE30E94CF
:1025A000231608C060E070E080EC9FE703C060E0A5
:1025B00070E0CB0120E030E048EC52E40E94D117FB
:1025C0000E94BA04C5C10091E2011091E3010E948A
:1025D00082086B017C014090E9015090EA01609013
:1025E000EB017090EC01B801110F880B990B0E9460
:1025F000C41524E83DE04FE85EE30E94231620E086
:1026000030E041E655E40E9423164B015C01C7010E
:10261000B601641975098609970928EE33E040E090
:1026200050E00E94F116CA01B9010E94C2159B0137
:10263000AC01C501B4010E94D1176B017C0110925D
:10264000E3011092E2010E9482086093E901709315
:10265000EA018093EB019093EC016EC10E946C0340
:10266000AFCF80E480937C0080917A008064809377
:102670007A0080917A0086FDFCCF009178008091ED
:10268000790010E0182B80E2EAE0F1E0DE01AF59BA
:10269000BF4F01900D928A95E1F760E771E09E01CE
:1026A0002F5F3F4F7901C9010E94470462E771E043
:1026B000CE0107960E94470463E771E0CE010D96B4
:1026C0000E94470466E771E0CE0143960E944704EA
:1026D00064E771E0CE0149960E9447046AE771E021
:1026E000CE014F960E9447046BE771E0CE018596BC
:1026F0000E9447046EE771E0CE018B960E9447046A
:1027000062E871E0CE01C1960E94470464E871E07E
:10271000CE01C7960E94470465E871E0CE01CD96D0
:102720000E94470468E871E0CE018D5B9F4F0E94D4
:10273000470462E971E0CE01875B9F4F0E94470426
:102740006CE871E0CE01815B9F4F0E94470461E914
:1027500071E0CE018B5A9F4F0E94470460E971E0FF
:10276000CE01855A9F4F0E944704FE01EF59FF4F4B
:1027700080E090E021913191A9014C5F5F4F4017BB
:10278000510734F024503109021713070CF078C1B7
:1027900001968031910571F7A801012E000C660B9E
:1027A000770B17FF32C08DE2C755DF4F4883C95AF8
:1027B000D040C655DF4F5883CA5AD040C555DF4F69
:1027C0006883CB5AD040C455DF4F7883CC5AD04071
:1027D0000E94EF01C755DF4F4881C95AD040C65506
:1027E000DF4F5881CA5AD040C555DF4F6881CB5A58
:1027F000D040C455DF4F7881CC5AD0407095609559
:10280000509541955F4F6F4F7F4F2AE08FE692E0E2
:102810000E94710469E571E08FE692E00E945C0419
:1028200064E971E0CE018F579F4F0E9447048E01EB
:102830000F591F4F06501109D8018D919C910E948C
:10284000C11A0E151F05B1F7CB57DF4F48815981CB
:10285000C558D040CF57DF4F68817981C158D040EB
:102860008FE692E00E94F10069E571E08FE692E068
:102870000E945C04CF57DF4F88819981C158D040B6
:102880000E94C11A65C06091F7017091F8018091B2
:10289000F9019091FA010E94BA041092F701109286
:1028A000F8011092F9011092FA0152C06091E4010E
:1028B0007091E501072E000C880B990B0E94C4153E
:1028C0002CE43CEA49E150E40E94231626E636E671
:1028D00046E650E40E94D1176B017C010E948208F9
:1028E0000091ED011091EE012091EF013091F00186
:1028F000601B710B820B930B28EE33E040E050E03D
:102900000E94F116CA01B9010E94C2159B01AC01D7
:10291000C701B6010E94D1176B017C011092E5013D
:102920001092E4010E9482086093ED017093EE0121
:102930008093EF019093F001C701B60141CE6AE99F
:1029400071E002C06DE971E08FE692E00E948C05B3
:102950000E94820828E833E140E050E00E94F1162E
:10296000653671058105910508F07CC08091F601FE
:10297000811178C081E08093F6010091E601109109
:10298000E7010E9482086B017C01B801110F880BDE
:10299000990B0E94C4152CE43CEA49E150E40E94E2
:1029A000231626E636E646E650E40E94D1174B0190
:1029B0005C018091F1019091F201A091F301B0913D
:1029C000F401A7019601281B390B4A0B5B0BCA01C6
:1029D000B90128EE33E040E050E00E94F116CA0150
:1029E000B9010E94C2159B01AC01C501B4010E944E
:1029F000D1176B017C011092E7011092E6010E9451
:102A000082086093F1017093F2018093F301909337
:102A1000F4012091F7013091F8014091F9015091B2
:102A2000FA01C701B6010E94C618181644F4C092F4
:102A3000F701D092F801E092F901F092FA01809149
:102A4000F501882339F060E08DE00E94DC071092E8
:102A5000F5010AC061E08DE00E94DC0781E080930F
:102A6000F50102C01092F6010E9462060C94E70C78
:102A700061EA71E08FE692E00E948C050C94E30C11
:102A8000CF57DF4F19821882C158D040CD57DF4F42
:102A900019821882C358D040CB57DF4F1982188251
:102AA000C558D04026E0289FF001299FF00D112441
:102AB000EE0DFF1D608171816115710509F4B7CEBE
:102AC00044815581CE018F579F4F0E940704AFCE9E
:102AD000EFE6F2E01382128288EE93E0A0E0B0E02D
:102AE00084839583A683B7832EE231E031832083EC
:102AF00025EC30E03587248724EC30E037872687C3
:102B000020EC30E0318B208B21EC30E0338B228BBA
:102B100022EC30E0358B248B26EC30E0378B268B93
:102B2000118E128E138E148EECE0F3E01682178253
:102B300010861186128613861486158616861786C9
:102B4000108A118A128A138A148A158AE4E5F3E03E
:102B50001382128284839583A683B7838EE391E0E8
:102B600091838083E0E6F3E08AE081878BE08287CF
:102B70008CE083878DE0848708950E94FF1508F418
:102B800081E00895E89409C097FB3EF49095809504
:102B9000709561957F4F8F4F9F4F9923A9F0F92F23
:102BA00096E9BB279395F695879577956795B795A1
:102BB000F111F8CFFAF4BB0F11F460FF1BC06F5F87
:102BC0007F4F8F4F9F4F16C0882311F096E911C099
:102BD000772321F09EE8872F762F05C0662371F0BA
:102BE00096E8862F70E060E02AF09A95660F771FCE
:102BF000881FDAF7880F9695879597F90895990FAA
:102C00000008550FAA0BE0E8FEEF16161706E807B6
:102C1000F907C0F012161306E407F50798F0621BD7
:102C2000730B840B950B39F40A2661F0232B242BAC
:102C3000252B21F408950A2609F4A140A6958FEFCB
:102C4000811D811D08950E9436160C94A7160E94BE
:102C5000991638F00E94A01620F0952311F00C94DC
:102C600090160C94961611240C94DB160E94B8163C
:102C700070F3959FC1F3950F50E0551F629FF001CF
:102C8000729FBB27F00DB11D639FAA27F00DB11DE8
:102C9000AA1F649F6627B00DA11D661F829F222771
:102CA000B00DA11D621F739FB00DA11D621F839FF8
:102CB000A00D611D221F749F3327A00D611D231FCE
:102CC000849F600D211D822F762F6A2F11249F571C
:102CD00050409AF0F1F088234AF0EE0FFF1FBB1F1F
:102CE000661F771F881F91505040A9F79E3F5105DE
:102CF00080F00C9490160C94DB165F3FE4F3983E42
:102D0000D4F3869577956795B795F795E7959F5F87
:102D1000C1F7FE2B880F911D9695879597F9089519
:102D200097F99F6780E870E060E008959FEF80EC7E
:102D3000089500240A941616170618060906089521
:102D400000240A9412161306140605060895092E87
:102D50000394000C11F4882352F0BB0F40F4BF2BF6
:102D600011F460FF04C06F5F7F4F8F4F9F4F089536
:102D700057FD9058440F551F59F05F3F71F047952C
:102D8000880F97FB991F61F09F3F79F08795089511
:102D9000121613061406551FF2CF4695F1DF08C030
:102DA000161617061806991FF1CF8695710561054D
:102DB00008940895E894BB2766277727CB0197F9F5
:102DC0000895DB018F939F930E941317BF91AF91DA
:102DD000A29F800D911DA39F900DB29F900D112475
:102DE0000895A1E21A2EAA1BBB1BFD010DC0AA1F4C
:102DF000BB1FEE1FFF1FA217B307E407F50720F064
:102E0000A21BB30BE40BF50B661F771F881F991FDE
:102E10001A9469F760957095809590959B01AC0127
:102E2000BD01CF0108950E945517A59F900DB49F35
:102E3000900DA49F800D911D112408952F923F9213
:102E40004F925F926F927F928F929F92AF92BF92BA
:102E5000CF92DF92EF92FF920F931F93CF93DF9366
:102E6000CDB7DEB7CA1BDB0B0FB6F894DEBF0FBEC3
:102E7000CDBF09942A88398848885F846E847D8410
:102E80008C849B84AA84B984C884DF80EE80FD8012
:102E90000C811B81AA81B981CE0FD11D0FB6F89488
:102EA000DEBF0FBECDBFED010895A29FB001B39F5D
:102EB000C001A39F700D811D1124911DB29F700D43
:102EC000811D1124911D08955058BB27AA270E94E7
:102ED0007C170C94A7160E94991638F00E94A01631
:102EE00020F039F49F3F19F426F40C9496160EF452
:102EF000E095E7FB0C949016E92F0E94B81658F362
:102F0000BA17620773078407950720F079F4A6F5CE
:102F10000C94DA160EF4E0950B2EBA2FA02D0B01AF
:102F2000B90190010C01CA01A0011124FF27591B0E
:102F300099F0593F50F4503E68F11A16F040A22F14
:102F4000232F342F4427585FF3CF46953795279585
:102F5000A795F0405395C9F77EF41F16BA0B620B84
:102F6000730B840BBAF09150A1F0FF0FBB1F661FCB
:102F7000771F881FC2F70EC0BA0F621F731F841F0E
:102F800048F4879577956795B795F7959E3F08F034
:102F9000B0CF9395880F08F09927EE0F97958795F6
:102FA00008950E94E5170C94A7160E94A01658F0E9
:102FB0000E94991640F029F45F3F29F00C94901676
:102FC00051110C94DB160C9496160E94B81668F3F7
:102FD0009923B1F3552391F3951B550BBB27AA27D2
:102FE00062177307840738F09F5F5F4F220F331F0C
:102FF000441FAA1FA9F335D00E2E3AF0E0E832D0D4
:1030000091505040E695001CCAF72BD0FE2F29D0D6
:10301000660F771F881FBB1F261737074807AB07A8
:10302000B0E809F0BB0B802DBF01FF2793585F4F1D
:103030003AF09E3F510578F00C9490160C94DB16F4
:103040005F3FE4F3983ED4F3869577956795B795FF
:10305000F7959F5FC9F7880F911D9695879597F90A
:103060000895E1E0660F771F881FBB1F6217730783
:103070008407BA0720F0621B730B840BBA0BEE1F98
:1030800088F7E09508950E94C01688F09F5798F041
:10309000B92F9927B751B0F0E1F0660F771F881F5D
:1030A000991F1AF0BA95C9F714C0B13091F00E9477
:1030B000DA16B1E008950C94DA16672F782F882776
:1030C000B85F39F0B93FCCF3869577956795B3959E
:1030D000D9F73EF490958095709561957F4F8F4F0D
:1030E0009F4F089597FB16F40E94B6180C94791818
:1030F000E894F92F96EBFF2381F0121613061406BD
:10310000440B9395F695879577956795579540402D
:10311000FF23B9F71BC099270895882351F49850CD
:10312000D2F7872B762F652F542F432F322F20E095
:10313000B1F3121613061406440B88233AF09A953D
:10314000440F551F661F771F881FCAF755234AF47F
:10315000440F551F11F460FF04C06F5F7F4F8F4F06
:103160009F4F880F9695879597F90895909580952C
:103170007095609550954095309521953F4F4F4FF4
:103180005F4F6F4F7F4F8F4F9F4F08950E94FF15E6
:1031900008F48FEF08950E94FF15880B990B08958E
:1031A000EE0FFF1F0590F491E02D0994B7FF0C94EA
:1031B00013170E941317821B930B0895DF93CF936D
:1031C0001F930F939A9DF02D219FF00D8B9DF00D75
:1031D0008A9DE02DF10D039FF00D029FE00DF11D82
:1031E0004E9DE00DF11D5E9DF00D4F9DF00D7F9306
:1031F0006F93BF92AF925F934F93D5010E94551783
:103200008B01AC01D7010E945517EB01E80FF91FA4
:10321000D6010E942E192F913F91D6010E94551779
:10322000C60FD71FE81FF91FAF91BF910E942E193B
:103230002F913F910E945517C60FD71FE81FF91F06
:10324000D6010E945517E60FF71F9801BE01CF0166
:1032500011240F911F91CF91DF9108950E9455176E
:10326000460F571FC81FD91F08F431960895689458
:1032700001C0E894F92FF12B12F00C946B19A0E027
:10328000B0E0E5E4F9E10C942417092E059422F44A
:103290000E94C719112392F4F0E80F26FFEFE09483
:1032A000F09400951095B094C094D094A194BF0A66
:1032B000CF0ADF0AEF0AFF0A0F0B1F0B0E947619D5
:1032C00007FC0E94C719CDB7DEB7ECE00C9440179D
:1032D000689401C0E8948F929F92CF93DF930E94ED
:1032E0007619DF91CF919F908F900895882499242B
:1032F000F401E401B0E49F93AA279A158B049C047F
:10330000ED05FE05CF05D007A10798F4AD2FDC2F02
:10331000CF2FFE2FE92D982C892E982F872F762FCF
:10332000652F542F432F322F2227B85031F7BF91EA
:1033300027C01B2EBF91BB27220F331F441F551FD1
:10334000661F771F881F991F881C991CEE1FFF1F7F
:10335000CC1FDD1FAA1FBB1F8A149B04EC05FD05B3
:10336000CE05DF05A007B10748F08A189B08EC09D5
:10337000FD09CE09DF09A00BB10B21601A94E1F61B
:103380002EF49401AF01BE01CD01000C08956095AB
:1033900070958095909530954095509521953F4F2B
:1033A0004F4F5F4F6F4F7F4F8F4F9F4F08950F933A
:1033B000083090F0982F872F762F652F542F432FAA
:1033C000322F22270850F4CF220F331F441F551FDE
:1033D000661F771F881F991F0A95B2F70F910895EE
:1033E00097FB10F8169400080F93083098F00850D7
:1033F000232F342F452F562F672F782F892F902D6D
:10340000F4CF059497958795779567955795479548
:10341000379527950A95AAF70F9108952A0D3B1D18
:103420004C1D5D1D6E1D7F1D801F911F08952A1963
:103430003B094C095D096E097F09800B910B0895CA
:103440000024A7FD00942A173005400550056005AB
:103450007005800590050895CF93DF938230910524
:1034600010F482E090E0E091EA03F091EB0320E0B9
:1034700030E0C0E0D0E0309711F140815181481731
:103480005907C0F04817590761F48281938120974A
:1034900019F09B838A832BC09093EB038093EA03FC
:1034A00026C02115310519F04217530718F49A0167
:1034B000BE01DF01EF010280F381E02DDCCF211599
:1034C000310509F1281B390B2430310590F412968F
:1034D0008D919C9113976115710521F0FB019383E8
:1034E000828304C09093EB038093EA03FD0132963C
:1034F00044C0FD01E20FF31F8193919322503109E3
:103500002D933C933AC02091E8033091E903232B9B
:1035100041F420910601309107013093E903209393
:10352000E80320910401309105012115310541F492
:103530002DB73EB74091080150910901241B350B6E
:10354000E091E803F091E903E217F307A0F42E1BE2
:103550003F0B2817390778F0AC014E5F5F4F2417F7
:10356000350748F04E0F5F1F5093E9034093E8037F
:103570008193919302C0E0E0F0E0CF01DF91CF9121
:1035800008950F931F93CF93DF93009709F48CC096
:10359000FC013297138212820091EA031091EB032F
:1035A0000115110581F420813181820F931F209133
:1035B000E8033091E9032817390779F5F093E90317
:1035C000E093E80371C0D80140E050E0AE17BF07B8
:1035D00050F412962D913C911397AD0121153105B0
:1035E00009F1D901F3CF9D01DA0133832283608190
:1035F0007181860F971F8217930769F4EC01288168
:103600003981260F371F2E5F3F4F318320838A81F8
:103610009B8193838283452B29F4F093EB03E09302
:10362000EA0342C01396FC93EE931297ED01499181
:1036300059919E01240F351FE217F30771F4808121
:103640009181840F951F029611969C938E9382818F
:10365000938113969C938E931297E0E0F0E0D8014B
:1036600012968D919C911397009719F0F8018C0197
:10367000F6CF8D919C9198012E5F3F4F820F931F43
:103680002091E8033091E9032817390769F430974E
:1036900029F41092EB031092EA0302C01382128203
:1036A0001093E9030093E803DF91CF911F910F91ED
:1036B0000895A0E0B0E0EFE5FBE10C942217EC01E7
:1036C000009721F4CB010E942C1AB8C0FC01E60F30
:1036D000F71F9C0122503109E217F30708F4ACC030
:1036E000D9010D911C91119706171707B0F00530FD
:1036F000110508F49FC0C80104978617970708F4BE
:1037000099C002501109061B170B019311936D9379
:103710007C93CF010E94C11A8DC05B01A01AB10A2F
:103720004C01800E911EA091EA03B091EB0340E0A2
:1037300050E0E12CF12C109709F44AC0A815B90506
:10374000D1F56D907C901197630182E0C80ED11C79
:10375000CA14DB0480F1A3014A195B096A0182E003
:10376000C80ED11C1296BC9012971396AC91B5E07E
:10377000CB16D10440F0B282A38351834083D90198
:103780006D937C930AC00E5F1F4FC301800F911F82
:10379000F90191838083EB2DFA2FE114F10431F0CC
:1037A000D7011396FC93EE93129744C0F093EB036A
:1037B000E093EA033FC08D919C91119748175907F8
:1037C00008F4AC017D0112960D90BC91A02DB3CFF1
:1037D0008091E8039091E90388159905E1F4461773
:1037E0005707C8F48091040190910501009741F4B6
:1037F0008DB79EB74091080150910901841B950B2C
:10380000E817F907C8F4F093E903E093E803F90136
:10381000718360830FC0CB010E942C1A7C0100973A
:1038200059F0A801BE010E94281CCE010E94C11AB5
:10383000C70104C0CE0102C080E090E0CDB7DEB782
:10384000EEE00C943E1781E090E0F8940C94381C64
:10385000FB01DC0102C001900D9241505040D8F7AD
:103860000895FB01DC0101900D920020E1F708951D
:04387000F894FFCFFA
:10387400910691060000EC03800014039701D00127
:1038840053005C004100B9007E002001F5007A027B
:103894005B02B3033E037903C20200000000F90592
:1038A400F100C205A005B405400600000000200791
:1038B400F006E806D406C506C406564D4450565FC5
:1038C400317C315F564D4450560D0A00564D4450DC
:1038D400455F003A323A007C005F564D4450450043
:1038E4004E004E4E4F004F4E4F004F534F00535318
:1038F4004F0053005353570057535700574E570028
:103904004E4E57004552524F52004F4B004E4343C8
:1039140000436F756C64206E6F742066696E64205A
:10392400612076616C696420424D453238302073E1
:10393400656E736F722C20636865636B20776972A0
:10394400696E6721006E616E00696E66006F76664F
:02395400000071
:00000001FF
